:020000040000fa
:080000000001040000000000f3
:020000040000fa
:100008009c0100009c0100009c0100009c01000074
:100018009c0100009c0100009c0100009c01000064
:100028009c0100009c0100009c0100009c01000054
:100038009c0100009c010000520f00009c01000080
:100048009c0100002e1000009c010000901100008f
:100058009c0100009c0100009c0100009c01000024
:100068009c0100009c0100009c0100009c01000014
:100078009c0100009c0100009c0100009c01000004
:100088009c0100009c0100009c0100009c010000f4
:100098009c0100009c0100009c0100009c010000e4
:1000a8009c0100009c0100009c0100009c010000d4
:1000b8009c0100009c0100009c0100009c010000c4
:1000c8009c0100009c0100009c0100009c010000b4
:1000d8009c0100009c0100009c0100009c010000a4
:1000e8009c0100009c0100009c0100009c01000094
:0800f8009c0100009c010000c6
:020000040000fa
:100108009c0100009c0100009c0100009c01000073
:100118009c0100009c0100009c0100009c01000063
:100128009c0100009c0100009c0100009c01000053
:100138009c0100009c010000520f00009c0100007f
:100148009c0100002e1000009c010000901100008e
:100158009c0100009c0100009c0100009c01000023
:100168009c0100009c0100009c0100009c01000013
:100178009c0100009c0100009c0100009c01000003
:100188009c0100009c0100009c0100009c010000f3
:100198009c0100009c0100009c0100009c010000e3
:1001a8009c0100009c0100009c0100009c010000d3
:1001b8009c0100009c0100009c0100009c010000c3
:1001c8009c0100009c0100009c0100009c010000b3
:1001d8009c0100009c0100009c0100009c010000a3
:1001e8009c0100009c0100009c0100009c01000093
:0801f8009c0100009c010000c5
:020000040000fa
:10020000cf8220000eff20000e01880000000000b9
:1002100000012000200288000c000700c0362200e8
:100220000100200011000700000020000000e00095
:100230000200320000000200000000008a140200e8
:10024000000000000040da000000fe004440a90069
:10025000c0b420000000e0000300320000002000d5
:10026000a00188004440a800000006009101880019
:10027000800078000000eb0015003700e2804000ad
:1002800032a0b4009101ba00e280400032a0b40074
:100290009102ba00e280400032a0b4000002eb00fc
:1002a000472bde00f507b200602ce10004003a00a5
:1002b0000059eb008301e900fdff3e000400370018
:1002c0006128e100010032000082eb000400070019
:1002d0001101ba000200e000e8ff3a000000060049
:1002e0003159ba008301e9000c0032002159ba00eb
:1002f0008301e900080032000400e00003003a0036
:10030000e280400032a0b400f5ff370011d9ba00f6
:100310008301e900faff3a008100e800e180400033
:1003200032a0b40000000600000000000000000041
:1003300000000000000000000040da000000fe00a5
:10034000889fbe008a9fbe008c1f7800990007001e
:10035000a000330003866c006450e1002e003200e0
:100360006420e100330032006150e1002f003200d0
:100370006120e1003100320085855500eb07b000b7
:10038000090020000804200005003700080444008c
:1003900089844c000a0031000603430087834b0028
:1003a0000001530081815b00f8ff33000203be00af
:1003b0000800a0000804440089844c00f6ff3900be
:1003c000c639dd00830173000100320013002000f4
:1003d0008904d1000884d3000998a30005003200e5
:1003e0000800a7000300a0008904d1000884d300fe
:1003f0008b05e8008904d1000884d3000001eb00dc
:100400000281d2003000070001f0a1000cf0a7002b
:1004100001f0a000780037006420e1007a0032008b
:100420000801be000200be00f7ff37006120e100b6
:10043000750032006000b800f3ff370000002000b4
:1004400001f82700f0ff37000001be00440007005c
:100450000470a70003f0a10003f8a30013003a0002
:100460006509b10010003200090035006928e1007b
:1004700002003500010028000000050000004000d7
:10048000818048008502e900fcff3a000000060078
:10049000f88f4200050035008100d1000080d300b4
:1004a0008502e800fcff3a00000006008000eb0037
:1004b000000005004f89de008201780089003700c6
:1004c0006011b8009700370081002000618055005e
:1004d0000b003d000b00200061fe2f000100e10039
:1004e0001d00340082817100610164008904d10023
:1004f0000884d3000000e800faff3a0071002000f1
:100500006100640003007000020060000900320016
:1005100061044400e0844c000988a5000500320015
:100520008b05e8006808e10002003a008904d10068
:100530000884d300f20f20000258e10005003d00be
:10054000c75ddd00f907b2008980750008007800fa
:10055000000006000bf827008b0078000000050063
:10056000c70ade00f107b200f50fb2000800320042
:10057000e1cf4200020032000170a000240005001b
:10058000810f7000010032000408050044000500de
:10059000810f700002003a00140005008502e90096
:1005a0000000400081c04800fcff3b000170a0003b
:1005b000240005000004be00e9ff07000003be00a0
:1005c0000405be000200be00e5ff0700844f750071
:1005d000000006000200be006450e1000500360085
:1005e0006420e100020036000968a30001003a001f
:1005f0000800be000160a0004f0678004f05be0055
:100600004f04be0000000600f0ff2f00f1ff27009e
:10061000f9ff3700889fbe008a9fbe008c1f7800bc
:10062000e4ff0700ebff330003866c006450e10039
:10063000240032006420e100270032006150e10014
:10064000220032006120e100210032008b8542004f
:10065000eb07b1000134b800003ab80008044200ca
:1006600089844a00013ab8000030b8008880400010
:1006700009014a0004003300000040008180480066
:10068000020149008b05e900c909dd008301700002
:100690000100320013002000c814de004814dd0001
:1006a0004709de001200b200c808de0008847000ae
:1006b00085ff070001f0a1000cf0a70001f0a000e9
:1006c000cdff37006120e100cfff32000801be00fe
:1006d0000200be00f7ff37006150e100fcff3a0066
:1006e000c9ff3700881f7800030478000300e0008a
:1006f00007003d0060001000e08018006001190054
:10070000e081190002003b0001f02d0003003700da
:100710000400070008f0a70001f0a0004f047800d3
:1007200000000600889fbe008a9fbe000082700005
:100730000402710004827100260032000004be0031
:100740000200be006011b8006b0920009502200075
:100750000182cf000a0039000541b1000082cf00bc
:10076000070039000541b1000982cf0004003900bb
:100770000541b1000882cf00010039000541b100f8
:1007800005425200120032000a003b0082817100d3
:10079000610164008100d1000080d3008984d3000e
:1007a0000884d3008b05e8000442e800f7ff3a0014
:1007b000070037000804440089844c00000048000a
:1007c000818048008b05e9000442e900f9ff3a0006
:1007d0003dff07004f05be004f04be0000000600ad
:020000040000fa
:1007e0000000000000000000000000000000000009
:1007f00000000000000000000000000000000000f9
:10080000000000003eff0000ff3e0000000000006e
:1008100000000000000d00000d00000000000000be
:1008200000040000070300000004000007030000ac
:1008300000000000000000000000000000000000b8
:1008400010fe0000fe10000010fe0000fe10000070
:10085000010f00000f010000010f00000f01000058
:100860001c3e000022ff0000ff420000ce8c000072
:1008700003070000040f00000f040000070300003e
:100880000000000006c60000f03c00000e02000060
:10089000000400000703000000060000060000003e
:1008a0001e3f0000e1c10000412100003f1e00008a
:1008b000060f0000090900000b0c00001e160000c6
:1008c000000000000407000003000000000000001a
:1008d0000000000000000000000000000000000018
:1008e00000000000f8fe000007010000000000000a
:1008f00000000000000700000e08000000000000db
:100900000000000001070000fef8000000000000e9
:1009100000000000080e00000701000000000000b9
:1009200020a80000f870000070f80000a820000067
:1009300000000000000000000000000000000000b7
:100940002020000020fc0000fc20000020200000ef
:100950000000000000010000010000000000000095
:100960000000000000000000000000000000000087
:1009700000000000203c00001c00000000000000ff
:100980002020000020200000202000002020000067
:100990000000000000000000000000000000000057
:1009a0000000000000000000000000000000000047
:1009b00000000000000c00000c000000000000001f
:1009c0000000000000c00000f03c00000f03000029
:1009d000000c00000f0300000000000000000000f9
:1009e000feff00000101000001010000fffe000009
:1009f000070f000008080000080800000f070000ab
:100a00000004000006ff0000ff00000000000000de
:100a100000080000080f00000f0800000800000098
:100a20000203000081c10000613100001f0e0000c0
:100a30000e0f00000908000008080000080c000064
:100a4000020300000121000021210000ffde000060
:100a5000040c000008080000080800000f07000050
:100a6000e0f00000988c000086ff0000ff0000000e
:100a70000000000000000000080f00000f08000048
:100a80003f3f00002121000021210000e1c10000c2
:100a9000040c000008080000080800000f07000010
:100aa000fcfe00002321000021210000e0c0000026
:100ab000070f000008080000080800000f070000ea
:100ac0000303000001810000e17900001f0700001e
:100ad00000000000000f00000f00000000000000f8
:100ae000deff00002121000021210000ffde0000c8
:100af000070f000008080000080800000f070000aa
:100b00001e3f00002121000021210000fffe000007
:100b10000008000008080000080c0000070300009f
:100b20000000000000180000180000000000000095
:100b300000000000000600000600000000000000a9
:100b40000000000000180000180000000000000075
:100b500000000000101e00000e0000000000000059
:100b600040e00000b01800000c0600000200000089
:100b70000000000001030000060c00000800000057
:100b800000a00000a0a00000a0a00000a0000000a5
:100b90000000000000000000000000000000000055
:100ba00000020000060c000018b00000e040000049
:100bb000000800000c060000030100000000000017
:100bc0000203000001c10000e13100001f0e00001f
:100bd00000000000000d00000d00000000000000fb
:100be0000203000001c10000e13100001f0e0000ff
:100bf00000000000000d00000d00000000000000db
:100c0000f8fc00008683000083860000fcf80000ea
:100c10000f0f000000000000000000000f0f000098
:100c2000ffff00002121000021210000ffde000065
:100c30000f0f000008080000080800000f07000060
:100c4000fcfe00000301000001010000030600009b
:100c5000030700000c080000080800000c06000054
:100c600001ff0000ff01000001030000fefc000086
:100c7000080f00000f080000080c00000703000028
:100c800001ff0000ff2100002171000003030000ac
:100c9000080f00000f080000080800000c0c0000fe
:100ca00001ff0000ff21000021710000030300008c
:100cb000080f00000f080000000000000000000006
:100cc000fcfe00000301000041410000c3c600001b
:100cd000030700000c08000008080000070f0000d0
:100ce000ffff00002020000020200000ffff000088
:100cf0000f0f000000000000000000000f0f0000b8
:100d00000001000001ff0000ff01000001000000e1
:100d100000080000080f00000f0800000800000095
:100d2000000000000000000001ff0000ff010000c3
:100d3000060e000008080000080f00000700000071
:100d400001ff0000ff700000d88c000007030000c6
:100d5000080f00000f000000000100000f0e00004f
:100d600001ff0000ff010000000000000000000083
:100d7000080f00000f080000080800000c0c00001d
:100d8000ffff00000c780000780c0000ffff00005f
:100d90000f0f000000000000000000000f0f000017
:100da000ffff00001c38000070e00000ffff0000a3
:100db0000f0f000000000000000000000f0f0000f7
:100dc000feff00000101000001010000fffe000025
:100dd000070f000008080000080800000f070000c7
:100de00001ff0000ff210000212100003f1e000044
:100df000080f00000f0800000000000000000000c5
:100e0000feff00000101000001010000fffe0000e4
:100e1000070f0000080e00001c3800002f0700001c
:100e200001ff0000ff21000021610000ff9e000083
:100e3000080f00000f080000000000000f0f000066
:100e40000e1f00003121000021610000c786000054
:100e5000060e000008080000080800000f07000048
:100e60000303000001ff0000ff0100000303000076
:100e700000000000080f00000f0800000000000044
:100e8000ffff00000000000000000000ffff000066
:100e9000070f000008080000080800000f07000006
:100ea000ffff00000000000000000000ffff000046
:100eb00001030000060c00000c0600000301000006
:100ec000ffff000000e00000e0000000ffff000066
:100ed000010f00000e030000030e00000f010000d0
:100ee000070f000098f00000f09800000f070000c6
:100ef0000e0f000001000000000100000f0e0000b6
:100f00000f1f000030e00000e03000001f0f000065
:100f100000000000080f00000f08000000000000a3
:100f200003830000c1610000311900000f070000b9
:100f30000f0f000008080000080800000c0c00005b
:100f400000000000ffff00000101000000000000a1
:100f5000000000000f0f0000080800000000000063
:100f600055aa000055aa000055aa000055aa000085
:100f700055aa000055aa000055aa000055aa000075
:100f80000000000001010000ffff00000000000061
:100f900000000000080800000f0f00000000000023
:100fa000080c000006030000030600000c08000007
:100fb0000000000000000000000000000000000031
:100fc0000000000000000000000000000000000021
:100fd0001010000010100000101000001010000091
:100fe00000000000080f00000700000000000000e3
:100ff00000000000000000000000000000000000f1
:10100000009000009090000090f00000e0000000d0
:10101000070f000008080000080700000f08000084
:1010200001ff0000ff10000010300000e0c00000d1
:10103000080f000007080000080800000f07000064
:10104000e0f0000010100000101000003020000040
:10105000070f000008080000080800000c0400004a
:10106000c0e000003010000011ff0000ff00000091
:10107000070f000008080000080700000f08000024
:10108000e0f000009090000090900000f0e0000080
:10109000070f000008080000080800000c0400000a
:1010a00000100000feff000011110000030200000c
:1010b000000800000f0f0000080000000000000002
:1010c000e0f000001010000010e00000f010000040
:1010d000276f000048480000487f00003f000000e4
:1010e00001ff0000ff20000010100000f0e00000f1
:1010f000080f00000f000000000000000f0f0000ac
:101100000010000010f60000f600000000000000d3
:1011100000080000080f00000f0800000800000091
:101120000000000010100000f6f6000000000000b3
:1011300030600000404000007f3f000000000000e1
:1011400001ff0000ffc00000c06000003010000080
:10115000080f00000f000000010300000e0c00004b
:101160000001000001ff0000ff000000000000007f
:1011700000080000080f00000f0800000800000031
:10118000f0f0000030e00000e0300000f0e000008f
:101190000f0f000000070000070000000f0f000005
:1011a00010f00000e010000010100000f0e000005f
:1011b000000f00000f000000000000000f0f0000f3
:1011c000e0f000001010000010100000f0e000003f
:1011d000070f000008080000080800000f070000c3
:1011e00010f00000e010000010100000f0e000001f
:1011f000407f00007f480000080800000f07000043
:10120000e0f000001010000010e00000f0100000fe
:10121000070f000008080000487f00007f40000022
:1012200010f00000e010000010100000302000005e
:10123000000f00000f000000000000000000000090
:1012400060f000009090000090100000302000003e
:10125000040c000008080000090900000f06000047
:1012600010100000feff0000101000000000000041
:1012700000000000070f0000080c00000400000040
:10128000f0f000000000000000f00000f00000009e
:10129000070f000008080000080700000f08000002
:1012a000f0f000000000000000000000f0f000007e
:1012b00001030000060c00000c0600000301000002
:1012c000f0f000000080000080000000f0f000005e
:1012d000070f00000c070000070c00000f070000bc
:1012e0001030000060c00000c0600000301000003e
:1012f000080c000006030000030600000c080000b4
:10130000f0f000000000000000000000f0f000001d
:10131000474f000048480000486800003f1f000099
:101320003030000010900000d0700000301000003d
:101330000c0e00000b090000080800000c0c000057
:10134000000000000000000000000000005f00003e
:10135000000000000007000000070000001400006b
:101360007f1400007f140000242a00007f2a000060
:1013700012230000130800006462000036490000d8
:10138000552200005000000005030000000000008e
:10139000001c00002241000000000000412200006b
:1013a0001c000000082a00001c2a00000808000099
:1013b000083e000008080000005000003000000057
:1013c00000080000080800000808000000300000c5
:1013d000300000000020000010080000040200009f
:1013e0003e510000494500003e000000427f0000e1
:1013f0004000000042610000514900004621000009
:10140000414500004b31000018140000127f00001d
:101410001027000045450000453900003c4a000007
:101420004949000030010000710900000503000077
:1014300036490000494900003606000049490000cd
:10144000291e0000003600003600000000000000e9
:1014500056360000000000000008000014220000c2
:101460004114000014140000141400004122000074
:1014700014080000000200000151000009060000ed
:1014800032490000794100003e7e00001111000049
:10149000117e00007f49000049490000363e0000ef
:1014a00041410000412200007f4100004122000034
:1014b0001c7f000049490000494100007f090000ed
:1014c00009010000013e00004141000051320000ce
:1014d0007f080000080800007f000000417f000036
:1014e0004100000020400000413f0000017f00005b
:1014f00008140000224100007f400000404000002e
:10150000407f000002040000027f00007f04000012
:10151000081000007f3e000041410000413e0000f5
:101520007f09000009090000063e0000415100004b
:10153000215e00007f0900001929000046460000d6
:101540004949000049310000010100007f0100000d
:10155000013f000040400000403f00001f2000000d
:10156000402000001f7f000020180000207f0000a6
:1015700063140000081400006303000004780000f6
:1015800004030000615100004945000043000000d1
:10159000007f00004141000002040000081000002c
:1015a00020410000417f0000000000000402000014
:1015b00001020000044000004040000040400000e4
:1015c000000100000204000000200000545400004c
:1015d000547800007f480000444400003838000080
:1015e0004444000044200000384400004448000007
:1015f0007f3800005454000054180000087e00009a
:10160000090100000208000014540000543c0000ce
:101610007f0800000404000078000000447d000002
:101620004000000020400000443d00000000000099
:101630007f10000028440000004100007f400000af
:10164000007c000004180000047800007c08000002
:1016500004040000783800004444000044380000ce
:101660007c1400001414000008080000141400008a
:10167000187c00007c0800000404000008480000fa
:101680005454000054200000043f00004440000077
:10169000203c000040400000207c00001c20000096
:1016a000402000001c3c000040300000403c000096
:1016b0004428000010280000440c00005050000096
:1016c000503c000044640000544c00004400000002
:1016d0000836000041000000000000007f0000000c
:1016e000000000004136000008000000080800006b
:1016f0002a1c0000080800001c2a0000080800003e
:1017000000000000000000000000000000000000d9
:1017100000000000000000000000000000000000c9
:1017200000000000000000000000000000000000b9
:1017300000000000000000000000000000000000a9
:101b400031320000333400003a010000ff0f000082
:101b5000b0020000c30f0000414c000041520000e1
:101b60004d3a00002044000065740000656b0000e1
:101b7000746f0000766100006e200000706f00003e
:101b80006b720000657400000a000000414c000008
:101b9000415200004d3a00002044000065740000ee
:101ba000656b0000746f0000766100006e2000001d
:101bb000646900006d0a0000004100004c41000013
:101bc000524d00003a20000044650000746500009a
:101bd0006b7400006f760000616e0000206e0000e4
:101be00065730000746100006e6100006b200000ee
:101bf000666100007a6500000a000000535400008e
:101c00004154000053000000534500005400000000
:101c1000434c000045410000520000004f4b0000c3
:101c20000053000054410000544900005354000088
:101c300049430000530000004761000073000000aa
:101c400052530000540000004d6f0000740000006b
:101c5000506900006e00000042410000434b00004c
:101c60000053000045540000544900004e47000056
:101c700053000000536900006c6500006e740000a2
:101c80003a2000004f4e000000530000696c000035
:101c9000656e0000743a0000204f000046460000c8
:101ca000004100006c610000726d00003a200000ed
:101cb000204f00004e000000416c000061720000e7
:101cc0006d3a0000202000004f4600004600000052
:101cd000416c0000617200006d200000696e000020
:101ce000697400002e2e00002e0a00000053000030
:101cf00074610000747300000a0000005365000066
:101d000074740000696e0000677300000a00000030
:101d1000556e0000657400006120000069730000ca
:101d200070720000617600006e610000206c00009f
:101d30006f7a0000696e00006b6100000a0000000d
:101d4000416300006365000070740000656400007a
:101d500000200000202000002020000020200000a3
:101d600020000000414c0000415200004d3a0000ac
:101d7000207000006f67000072650000736e000045
:101d8000612000006c6f00007a6900006e6b00003b
:101d9000610a000000450000727200006f720000ce
:101da000004300006c650000617200000a00000042
:101db0005469000068690000206100006c61000047
:101dc000726d000020690000736b00006c6a0000f7
:101dd00075630000656e00000a0000005469000091
:101de00068690000206100006c610000726d0000f5
:101df000207500006b6c00006a75000063650000d0
:101e00006e0a000000530000696c0000656e00005f
:101e1000743a0000204f00004e20000000410000f6
:101e20006c610000726d000020690000736b00009f
:101e30006c6a000075630000656e00000a00000017
:101e4000416c0000617200006d200000756b0000a5
:101e50006c6a000075630000656e00000a000000f7
:101e6000416c0000617200006d3a0000202000000b
:081e70004f4e000020000000ad
:020000040000fa
:101e78000000fa000002eb0034088800d4142000a7
:101e8800640888001021a90084c0a9008cc0a8009b
:101e980011e1a8000080fa0000000600849fbe003f
:101ea800861f78003400f80004002000a401880090
:101eb8000000fa000002eb0034088800d4408000db
:101ec800e00f520021003a0024418000e10f520047
:101ed8001d003a00344180000402e80034418800c3
:101ee80035418000341f2000848f52000e003e00d0
:101ef800241680004b22de006142620004c2ea0020
:101f0800614262000482fb00610262004b22dd0034
:101f180026168000f57f2f00850263000482720078
:101f28002416880001003700c562a90035418000e9
:101f3800843e2000848f520004003a000002eb0027
:101f48003441880001003700c562a90084c0a90097
:101f58000080fa003400f9004f0378004f02be00f9
:101f6800004006000000fa00c4408000e10f520063
:101f780008003a00144180000402e8001441880077
:101f88001400200024418800c40e2100c0da280073
:101f9800040001000080fa00000006000000fa00ba
:101fa800c4408000e10f520008003a00e44080007d
:101fb8000402e800e440880014002000244188005e
:101fc800c40e210060dc2800040001000080fa0033
:101fd800000006000000fa00c4408000e10f520033
:101fe80008003a00044180000402e8000441880027
:101ff8001400200024418800c40e2100d0dd2800f0
:10200800040001000080fa00000006000000fa0049
:10201800cda2a900cdc2a9000080fa0000000600e8
:102028000000fa0054012000a41088000d42a90005
:102038008d20a80075108000c4ff2f000482620064
:10204800741088000de2a8000f42a8000080fa0072
:10205800000006003400f800881f780008002000ff
:10206800a80188004f0478000000fa008520a90024
:102078000080fa003400f900004006000200fa006f
:10208800000f780000000000751080000410200088
:1020980004826200e00f5200fbff320064108000ef
:1020a80066026200e60f520003003a001e02780042
:1020b8008410880003003700f40f20001e0262001d
:1020c800841088000080fa00000006000400fa006e
:1020d800100798009e029000843e2000110009001d
:1020e8008482d80000027800044f78009e4278006d
:1020f8000582fb000403b00004007800dfff07003e
:102108001e4078008082fb0084c12f0004aab90019
:10211800040278009e02900004824200140798008e
:102128009e02900044062000110009008482d80015
:1021380000027800044f78009e4278000582fb0078
:102148000403b00004007800ccff07001e407800ac
:102158008082fb00c4f92f0004aab90004027800a9
:102168009e02900004824200140798009e0290008c
:10217800a4002000110009008482d8000002780021
:10218800044f78009e4278000582fb000403b000eb
:1021980004007800b9ff07001e4078008082fb0029
:1021a80064ff2f0004aab900040278009e02900080
:1021b80004824200140798001e0290000403b00035
:1021c80004007800adff07000080fa000000060058
:1021d8000400fa00100798000002eb00040f7800d2
:1021e800070037001e0290001e02420014427800c9
:1021f8000482fb0004007800a0ff07001e0fe8001f
:102208001e0290001e02420014427800e04f520065
:10221800f4ff3a000080fa00000006000400fa000b
:10222800100798000002eb00040f78000100370047
:102238001e0fe8001e0290009e027800848f520054
:10224800fbff39000080fa00000006000000fa00d9
:10225800cfa2a800cfc2a900d1a2a800d1c2a900cc
:10226800401f2000edff07009440800024408800b4
:10227800d1a2a900d1c2a800cfa2a900cfc2a800ac
:10228800401f2000e5ff0700a4408000344088007c
:1022980024408000a413b100050020000400be0003
:1022a80085f807000002be00d29d2a00a3d02300b3
:1022b8000400be00d5f807000002be000400be00fe
:1022c8005ff807000002be0004027800044088009e
:1022d80034408000042bb100050020000400be003b
:1022e80075f807000002be00724e2a00c3c9230019
:1022f8000400be00c5f807000002be000400be00ce
:102308004ff807000002be0004027800144088005d
:102318000080fa0000000600841f78003400f800ee
:1023280004002000a40188000000fa0004148000c2
:1023380044408800141480005440880044408000c1
:102348009440880054408000a44088008560a9001b
:102358000080fa003400f9004f02780000400600bf
:102368000400fa00100798009e029000843e2000a6
:10237800110009008482d80000027800044f780018
:1023880005c3b3001ec2420004407800420707009c
:102398001e4078008082fb0084c12f0004aab90087
:1023a800040278009e0290000482420014079800fc
:1023b8009e02900044062000110009008482d80083
:1023c80000027800044f780005c3b3001ec2420023
:1023d80004407800300707001e4078008082fb0028
:1023e800c4f92f0004aab900040278009e029000e4
:1023f80004824200140798009e029000a400200066
:10240800110009008482d80000027800044f780087
:1024180005c3b3001ec24200044078001e0707002f
:102428001e4078008082fb0064ff2f0004aab900d8
:10243800040278009e02900004824200140798006b
:102448001e029000044278000443b0000440780063
:10245800110707000080fa00000006000800fa00d3
:10246800000f78001107980022079800330798009a
:102478003e029000844278001e02900004427800d8
:1024880084c342002e029000844278001e02780025
:102498000442780004c342001e029000844278007f
:1024a8001e027800044278008741780006417800cf
:1024b8008540780004407800be0607000080fa00d6
:1024c800000006000000fa0013c1b30032c4b300d4
:1024d80051c0b30030c0b300b606070031c0b30026
:1024e800a0c0b300d004070010c3b300ea06070079
:1024f80031c0b30030c2b300cb04070020c3b3001f
:10250800e506070031c0b300c0c3b300c604070026
:1025180030c3b300e006070051c0b300a0c0b30049
:10252800c104070040c3b300db06070051c0b30075
:1025380030c2b300bc04070050c3b300d60607007e
:1025480051c0b300c0c3b300b704070060c3b300f1
:10255800d106070071c0b300a0c0b300b2040700e1
:1025680070c3b300cc06070071c0b30030c2b3001b
:10257800ad04070080c3b300c706070071c0b300ed
:10258800c0c3b300a804070090c3b300c206070085
:1025980011c0b30050c5b300a3040700e0df280052
:1025a8008007070031c0b30050c5b3009e04070080
:1025b80040e028007b07070051c0b30050c5b300b6
:1025c8009904070080e028007607070071c0b3006f
:1025d80050c5b30094040700e0e028007107070025
:1025e8000080fa00000006000800fa0011c0b300dd
:1025f80060c2b3008c04070010e1280069070700d7
:1026080031c0b30030c0b30087040700c0e1280020
:102618006407070041c0b30030c0b300820407005c
:1026280000e228005f07070051c0b30030c0b300c4
:102638007d04070040e228005a07070061c0b30084
:1026480030c0b3007804070080e22800550707006f
:10265800e5408000044180008482420014418000eb
:1026680084824200f440800004824200e00f52005d
:102678005c003200e54080004406200004aab9004e
:1026880084027800e640800004418000040343008f
:102698001441800004034300f44080000402430016
:1026a800110009008482d80000027800040f780025
:1026b800054180004406200004aab900840278007d
:1026c800e640800004418000040343001441800078
:1026d80004034300f4408000040243001100090091
:1026e8008482d80000027800140798001541800001
:1026f8004406200004aab90084027800e64080005d
:102708000441800004034300144180000403430093
:10271800f440800004024300110009008482d800bc
:102728000002780024079800f54080004406200045
:1027380004aab90084027800e640800004418000c1
:10274800040343001441800004034300f440800064
:1027580004024300110009008482d80000027800b6
:1027680034079800a54421001e0378007a0243002c
:10277800f30120000401780091012000a00120004d
:1027880005000100a54421001e0290007a024200c3
:10279800730220000401780011022000a00120002b
:1027a80005000100a54421002e0290007a02420093
:1027b800f30220000401780091022000a00120000b
:1027c80005000100a54421003e0290007a02420063
:1027d800730320000401780011032000a0012000e9
:1027e8000500010071c0b300a0c5b3000e040700c6
:1027f800c0e22800eb0607000080fa00000006008f
:102808000000fa0011c0b30080c2b300060407003c
:1028180010e32800e306070031c0b30050c0b3003e
:1028280001040700d4408000e10f520003003a0081
:10283800a0e32800db0607000200370050e4280068
:10284800d806070051c0b30050c0b300f603070014
:10285800c4408000e10f520003003a0010e5280050
:10286800d006070002003700c0e52800cd060700a3
:1028780071c0b300a0c5b300eb030700c0e2280095
:10288800c80607000080fa00000006000c00fa00e5
:1028980020079800310798004207980053079800ce
:1028a8002e029000040f7800120037003e029000bc
:1028b800140798000a0037001e029000844278002e
:1028c8001e027800044278008540780004407800b1
:1028d800e10407001e0290000402e80014079800b3
:1028e8009e0290005e029000848f5200f2ff350035
:1028f8001e0fe8004e0290009e027800848f52005e
:10290800eaff35000080fa00000006003200fa00f5
:10291800fd020700bdfd07000d040700480407007d
:10292800bffd070084e628000400780028fe0700a1
:102938002e07070026070700a1e2a800c162a90028
:102948004bfd0700a4a22200a5a22200441798006c
:10295800551798006022b8006417980075179800fa
:102968000002eb00041f98000002eb00040f78003f
:102978000042eb0024479800d2fe070011c0b300c4
:10298800a0c0b300a8030700840220000e02420082
:1029980004007800830607000b00370000000000e1
:1029a80009003700000000000700370000000000a1
:1029b8000500370000000000030037000000000099
:1029c800010037000000000020fe0700b44080002e
:1029d800e00f5200c9013a0004408000e00f5200a5
:1029e800ec00320005408000f4072000848f52007c
:1029f800e8003e0014408000e00f5200e50032007d
:102a080015408000f4032000848f5200e1003e004e
:102a18001e027800e30f5200020034003400200048
:102a2800040f780004408000e30f52000d003600c8
:102a380004408000f60f52000a003e001440800057
:102a4800ff0f52000700360015408000a402200046
:102a5800848f520003003e0014c3b300244798003b
:102a6800c900370004408000fb0f52000e003600fa
:102a780005408000a4022000848f52000a003e0016
:102a880014408000ff0f52000700360015408000f8
:102a9800a4022000848f520003003e0024c3b30028
:102aa80024479800b800370005408000e403200060
:102ab800848f52000e003600054080005404200028
:102ac800848f52000a003e0014408000ff0f52001d
:102ad8000700360015408000a4022000848f5200b1
:102ae80003003e0034c3b30024479800a600370013
:102af80004408000e30f52000c00360004408000c0
:102b0800f60f520009003e0014408000ec0f5200fe
:102b18000600360014408000f90f520003003e0002
:102b280044c3b3002447980097003700044080004e
:102b3800fb0f52000d00360005408000a402200063
:102b4800848f520009003e0014408000ec0f5200b0
:102b58000600360014408000f90f520003003e00c2
:102b680054c3b3002447980087003700054080000d
:102b7800e4032000848f52000d00360005408000d9
:102b880054042000848f520009003e001440800045
:102b9800ec0f52000600360014408000f90f520076
:102ba80003003e0064c3b300244798007600370052
:102bb80004408000e30f52000c00360004408000ff
:102bc800f60f520009003e0014408000e00f52004a
:102bd8000600320014408000e90f520003003e0056
:102be80074c3b3002447980067003700044080008e
:102bf800fb0f52000d00360005408000a4022000a3
:102c0800848f520009003e0014408000e00f5200fb
:102c18000600320014408000e90f520003003e0015
:102c280084c3b3002447980057003700054080004c
:102c3800e4032000848f52000d0036000540800018
:102c480054042000848f520009003e001440800084
:102c5800e00f52000600320014408000e90f5200d5
:102c680003003e0094c3b300244798004600370091
:102c78000540800054052000848f52000f00360064
:102c880005408000e4072000848f52000b003e00be
:102c980015408000f4022000848f5200070036009f
:102ca80015408000b4032000848f520003003e00ca
:102cb80034c7b3002447980033003700054080002c
:102cc800b4042000848f52000e00360005408000b6
:102cd800e4072000848f52000a003e001440800060
:102ce800f90f52000700360015408000a4022000aa
:102cf800848f520003003e0004c7b30024479800a5
:102d08002100370005408000b4042000848f520061
:102d18000d00360005408000e4072000848f520033
:102d280009003e0014408000ed0f520006003600f6
:102d380014408000f70f520003003e0034c6b30071
:102d4800244798001000370005408000b404200094
:102d5800848f52000c00360005408000e4072000f4
:102d6800848f520008003e0014408000e00f52009b
:102d78000500320014408000e90f520002003e00b6
:102d8800f4c6b30024479800803e200023fd0700c6
:102d98000dff3700ae42900034c7b30084cf520015
:102da8000a003a0074e728000400780008fd0700cc
:102db80024002000b4408800210307000afe070011
:102dc8000042eb0024479800b9003700ae4290005b
:102dd80004c7b30084cf52000a003a00e4e7280091
:102de80004007800fafc070014002000b4408800b2
:102df8001303070082fe07000042eb0024479800f7
:102e0800ab003700ae429000f4c6b30084cf520046
:102e180086003a000002eb00240798001400200006
:102e2800340798000002eb002407980010003700d0
:102e3800850220008e8242002e0290000482420009
:102e48009442780006da28002e029000040243001b
:102e58001442780084cf5200020032000002eb00d6
:102e6800340798002e0290000402e8002407980016
:102e78002e029000e30f5200edff34003e02900056
:102e8800e00f52002d00320084e82800040078008a
:102e9800cffc07000002eb00040f78000002eb00f3
:102ea8002407980009003700850220008e8242001e
:102eb8002e02900084824200a4c2b300844a7800a3
:102ec8002e0290000402e800240798002e029000c9
:102ed800e30f5200f4ff340011c0b300a0c0b300e8
:102ee8005102070000ea28002e0507000002eb0047
:102ef8002407980005003700803e2000c7fc070023
:102f08002e0290000402e80024079800ae02900008
:102f1800b4122000848f5200f7ff340011c0b300b0
:102f2800a0c0b3004002070090ea28001d05070072
:102f38000002eb002441880032003700c4408000c2
:102f4800e10f520008003a0024eb28000400780042
:102f58009ffc0700f44080000402e800f440880069
:102f680014002000244188000002eb00040f7800c0
:102f78000002eb00240798000900370085022000b2
:102f88008e8242002e02900084824200a4c2b300c6
:102f9800844a78002e0290000402e8002407980072
:102fa8002e029000e30f5200f4ff340011c0b3006a
:102fb800a0c0b3001c020700b0ec2800f904070009
:102fc8000002eb002407980005003700803e20002f
:102fd80092fc07002e0290000402e80024079800e3
:102fe800ae029000b4122000848f5200f7ff340024
:102ff80011c0b300a0c0b3000b02070090ea28007c
:10300800e804070011c0b300a0c0b300060207001f
:10301800840220000e02420004007800e104070048
:103028000042eb002447980021003700ae42900090
:1030380034c6b30084cf52001d003a0014ed2800b6
:103048000400780062fc07000002eb00040f78001f
:103058000002eb00440798000900370085022000b1
:103068008e8242004e02900084824200a4c2b300c5
:10307800844a78004e0290000402e8004407980051
:103088004e029000e30f5200f4ff340011c0b30069
:10309800a0c0b300e4010700840220000e02420031
:1030a80004007800bf0407000042eb0024479800a2
:1030b8002e429000e04f520038fe32008402200079
:1030c8000e0242001e024200ae429000054a7800fd
:1030d8001e0fe8000042eb002447980011c0b3001f
:1030e800a0c0b300d0010700840220000e024200f5
:1030f80004007800ab04070033fe3700b4408000ba
:10310800e20f520023003a0004408000e00f520012
:1031180024fe320005408000f4072000848f52000e
:1031280022fe3e0014408000e00f520021fe3200d3
:1031380015408000f4032000848f52001ffe3e00db
:1031480005408000a4052000848f52000e00360040
:1031580005408000e4072000848f52000a003e00ea
:1031680014408000e00f5200070032001440800035
:10317800e70f520004003e00310207000002eb0096
:10318800b4408800cffc0700803e200023fc0700e5
:103198000dfe370004408000e00f5200430032006b
:1031a80005408000f4072000848f52003f003e0055
:1031b80014408000e00f52003c00320015408000af
:1031c800f4032000848f520038003e000540800040
:1031d800a4052000848f52000f00360005408000af
:1031e800e4072000848f52000b003e00144080004a
:1031f800e00f52000800320014408000e70f520030
:1032080005003e000e0207000002eb00b4408800f3
:10321800acfc07002200370005408000f4022000c3
:10322800848f52000e0036000540800024052000df
:10323800848f52000a003e0014408000fe0f5200a6
:10324800070036001540800074022000848f520069
:1032580003003e0034c7b30024479800100037002d
:1032680005408000f4022000848f52000c003600d4
:103278000540800024052000848f520008003e008d
:1032880014408000ed0f5200050036001440800005
:10329800f90f520002003e0014c6b30024479800fc
:1032a800803e2000ddfb0700c7fd3700ae429000de
:1032b80034c7b30084cf520018003a0031c0b300bd
:1032c80050c0b30058010700d4408000e10f5200fd
:1032d80008003a000002eb00d440880084ed280082
:1032e80004007800bafb070050e428002d0407000a
:1032f8000700370014002000d4408800e4ee2800be
:1033080004007800b2fb070030f02800250407000d
:103318000042eb0024479800abfd3700ae42900016
:1033280014c6b30084cf5200a6fd3a0051c0b300c2
:1033380050c0b3003c010700c4408000e10f5200b8
:103348000b003a0024418000e00f52000f003a00c1
:103358000002eb00c4408800c0e528001104070003
:10336800f4f028000400780099fb070007003700f4
:1033780014002000c440880004f2280004007800eb
:1033880093fb070000f32800060407000042eb0047
:10339800244798008cfd37000200fa00004f78009f
:1033a8001e427800e04f52000500320015178000d9
:1033b80004022000048272001417880004003700f9
:1033c80015178000f4fd2f0004826200141788008e
:1033d8000080fa00000006000200fa00004f7800a2
:1033e8001e427800e04f520004003200141780009b
:1033f8000440a00014178800040037001517800047
:10340800f4fe2f0004826200141788000080fa007e
:10341800000006000200fa00004f78001e42780003
:10342800e04f520004003200141780000410a0007e
:10343800141788000400370015178000d4ff2f00e8
:1034480004826200141788000080fa000000060059
:103458000200fa00004f78001e427800e04f520048
:1034680004003200141780000400a000141788001c
:103478000400370015178000e4ff2f000482620063
:10348800141788000080fa00000006000200fa0005
:10349800004f78001e427800e04f520005003200cd
:1034a8005516800004022000048272005416880019
:1034b8000400370055168000f4fd2f0004826200d6
:1034c800541688000080fa00000006000200fa0086
:1034d800004f78001e427800e04f5200040032008e
:1034e800541680000440a0005416880004003700d9
:1034f80055168000f4fe2f000482620054168800de
:103508000080fa00000006000000fa00dea2a90010
:10351800de82a900de22a900de02a900a8a2a80076
:10352800c6a2a900a882a800c682a900a802a8006d
:10353800c602a900a822a800c622a900a842a8007d
:10354800c642a900a862a800c662a900d202a900c2
:10355800d222a900d242a900d262a9000080fa00b2
:10356800000006000200fa00004f78001e427800b2
:10357800e04f520008003a00d202a900d222a90066
:10358800d242a900d262a900c662a900c642a90017
:10359800c622a900c602a9001e427800e14f5200c7
:1035a80008003a00d202a800d222a800d242a800fd
:1035b800d262a800c662a800c642a800c622a80017
:1035c800c602a8000080fa00000006000400fa0005
:1035d800204798002e429000044f7800b5168000ce
:1035e80004ff2f0004826200b4168800551680007c
:1035f80004ff2f0004826200541688009e4278005f
:103608006fc26200144798001e4290008482fb003b
:103618005416800004827200541688009e42780076
:103628000582fb004422de00044f78001e42780029
:103638008482fb00b416800004827200b4168800ed
:103648000080fa00000006000200fa00a4168000bc
:10365800044f78001e427800450020000522dd0056
:10366800044f780044168000144798001e429000ca
:103678006f426200144798001e4290001e424200aa
:10368800144798001e429000044078000080fa0019
:10369800000006000000fa0010c0b3004eff07004b
:1036a8000040eb004cff07000080fa000000060015
:1036b8000200fa00004f78000040eb0064ff0700aa
:1036c8000040eb0053ff07001e407800bfff0700d3
:1036d800f0ff07000080fa00000006000400fa006e
:1036e800100798000002eb00040f78000100370073
:1036f8001e0fe8001e0290009e027800848f520080
:10370800fbff39000080fa00000006000200fa0002
:103718000040eb004eff070010c0b3003dff07005c
:1037280010c0b3008fff070010c0b3002aff0700c6
:10373800c5ff070000427800044f78000040eb0006
:1037480025ff070003003700bfff0700004278008d
:10375800044f78001e427800e04f5200faff35000f
:103768000080fa00000006000200fa00004f78000e
:10377800f4c3b3009e42780084cf52000a003e0092
:1037880010c0b3003900070004c4b3001e42720021
:1037980004407800c6ff070014c0b3000440780056
:1037a8002ae8b7000f0037001e427800e04f5200a9
:1037b8000c0035000040eb002c00070004ccb300df
:1037c8001e4242008442780004c4b30004c272005e
:1037d80004407800b6ff07000042eb000440780080
:1037e8002ae8b7001e40780028e8b7000080fa00f1
:1037f800000006000200fa00004f78001e42780020
:10380800e74f520006003e0084cbb3001e42720010
:1038180004407800a6ff07001e40780029e8b7009a
:103828000080fa00000006000200fa00004f78004d
:10383800114798001e407800cbff07001e409000fb
:10384800ecff07000080fa00000006000200fa0002
:10385800004f780004ccb3001e4272000440780088
:1038680093ff07000080fa00000006000200fa003b
:10387800004f78000040eb00f5fe07001e4278007c
:10388800e04f52000c003a000040eb00e1fe070058
:1038980010c0b3000dff07000040eb00fbfe07005f
:1038a800f0c3b30082ff07000042eb000440780039
:1038b8002ae8b7000b0037000040eb00d5fe0700f0
:1038c8000040eb0001ff070010c0b300effe070047
:1038d800f0c3b30076ff070014c0b30004407800bb
:1038e8002ae8b7000080fa00000006000200fa008b
:1038f80010c0b3001bff070010c0b300d4fe0700c0
:1039080010c0b300c3fe070062ff070010c0b30079
:10391800b1fe07004cff070000427800044f780012
:103928000040eb00acfe07000040eb000dff070075
:103938000040eb00c6fe07000040eb00b5fe0700a4
:103948001e427800044078000080fa00000006005b
:103958000000fa000040eb001cff07000040eb00ed
:10396800bbfe07000040eb00aafe07000040eb008a
:1039780099fe07000040eb00d4fe07000040eb0072
:10398800c2fe070010c0b30083fe0700a00020009d
:1039980052ff07000040eb007ffe0700a000200058
:1039a8004eff070010c0b3007bfe070010c0b30035
:1039b800aeff0700e0c3b3003dff070000ccb30033
:1039c8003bff070080cbb30039ff070000c4b300fa
:1039d80037ff0700f0c3b30035ff07000040eb00d6
:1039e800a2ff0700e0c3b30031ff070000ccb3001b
:1039f8002fff070080cbb3002dff070000c4b300e2
:103a08002bff0700f0c3b30029ff07000080fa006e
:103a1800000006000200fa00004f780010c0b30052
:103a28008bfe07000040eb007afe07001e4078007e
:103a3800e6fe070017ff07000080fa0000000600f6
:103a48000200fa000042eb00144798001d003700fe
:103a58009e4090000040eb0073ff07000042eb001f
:103a6800044f7800030037000040eb00e9ff07002f
:103a78001e4fe800f4c3b3009e42780084cf520082
:103a8800f9ff36009e40900000c4b30066ff0700af
:103a98000042eb00044f7800030037000040eb00c1
:103aa800dcff07001e4fe800f4c3b3009e42780015
:103ab80084cf5200f9ff36001e4290000442e8000d
:103ac800144798001e429000e74f5200e0ff36006e
:103ad8000080fa00000006000200fa000042eb0035
:103ae800144798001d0037009e4090000040eb00ee
:103af8004dff07000042eb00044f78000300370039
:103b080000c0eb00c3ff07001e4fe800f4c3b3007a
:103b18009e42780084cf5200f9ff36009e40900004
:103b280000c4b30040ff07000042eb00044f7800d8
:103b38000300370000c0eb00b6ff07001e4fe80087
:103b4800f4c3b3009e42780084cf5200f9ff3600d8
:103b58001e4290000442e800144798001e4290005c
:103b6800e74f5200e0ff36000080fa000000060030
:103b78000400fa00100798000042eb001447980070
:103b8800300037009e4090000040eb0026ff070001
:103b98000042eb00044f78000c0037001e429000f2
:103ba8000482fb00c722dd001e4378000682fb006a
:103bb800048242009e02900004824200144278006f
:103bc8000440780093ff07001e4fe800f4c3b300d9
:103bd8009e42780084cf5200f0ff36009e4090004d
:103be80000c4b30010ff07000042eb00044f780048
:103bf8000d0037001e4290000482fb00c722dd0042
:103c08001e4378000682fb00048242000404b000d0
:103c18009e0290000482420014427800044078001a
:103c28007cff07001e4fe800f4c3b3009e427800f3
:103c380084cf5200efff36001e4290000442e80095
:103c4800144798001e429000e74f5200cdff3600ff
:103c58000080fa00000006000400fa0020479800df
:103c6800314798000042eb00044f78003e42900034
:103c78000482fb004322de0004427800844078007e
:103c88002e409000e8fe070018ff07000042780069
:103c9800044f78003e4290000482fb004322de007d
:103ca80004427800844078002e409000defe070031
:103cb8003e4290000482fb0067026200150020006b
:103cc800042add00844278001e42780004c2720093
:103cd800044078004fff07000080fa00000006004b
:103ce8000400fa0020479800314798000042eb0092
:103cf800044f78003e4290000482fb004322de001d
:103d080004427800844078002e409000c6fe0700e8
:103d1800f6fe070000427800044f78003e4290000b
:103d28000482fb004322de000442780084407800cd
:103d38002e409000bcfe07003e4290000482fb002b
:103d48006702620015002000042add0004427800a2
:103d580084c2ea001e42780004c26200044078006f
:103d68002cff07000080fa00000006000c00fa0093
:103d7800004f9800114f9800224f98000002eb0066
:103d8800040f78000002eb00140798000002eb0013
:103d9800240798009e4a90000e4a900004c25200e0
:103da800644798002e4a90000482fb00140798008c
:103db8002e4a90008482fb00e4ff2f0004aab90079
:103dc80004027800630f4200740037001e0290005e
:103dd800844278001e4a900084c242002e0290005d
:103de800044378000e4a900004424300854078005e
:103df8000440780098ff07001e02900004427800f3
:103e08009e4a900084c252002e029000044378001b
:103e18000e4a900004424300854078000440780030
:103e28008dff07001e029000844278001e4a900011
:103e380084c242002e029000044278000e4b90008b
:103e480004425300854078000440780082ff070050
:103e58001e029000044278009e4a900084c25200dc
:103e68002e029000044278000e4b9000044253004a
:103e7800854078000440780077ff07002e02900004
:103e8800844278001e4a900084c242001e029000bc
:103e9800044378001e4a9000044343006e42900099
:103ea8000442530085407800044078006aff070008
:103eb8002e029000044278009e4a900084c252006c
:103ec8001e029000044378001e4a900004434300f9
:103ed8006e42900004425300854078000440780008
:103ee8005dff07002e029000844278001e4a900071
:103ef80084c242001e029000044278001e4b9000cb
:103f0800044353006e4290000442530085407800f9
:103f18000440780050ff07002e0290000442780009
:103f28009e4a900084c252001e029000044278000b
:103f38001e4b9000044353006e429000044253000d
:103f4800854078000440780043ff07001e0278008f
:103f5800e00f520005003d002e0290004222dd00d5
:103f6800660242001e0f420009003700ae029000b0
:103f78001e029000048252004222dd006a024200c2
:103f88001e0f42001e0290000402e9001407980068
:103f98002e0290000402e80024079800ae02900068
:103fa8001e029000848f520088ff34000080fa00bf
:103fb800000006000600fa002047980031479800e4
:103fc80042479800534798000042eb00044f78009e
:103fd8000042eb00044f78000b0037002e4290009f
:103fe8001e424200be409000044078001aff0700bd
:103ff8002e4290001e424200de40900004407800ad
:1040080015ff07001e4fe8001e4278008482fb005f
:104018004e4290000483fb002e4290000482fb0075
:10402800040253000402e800848f5200ebff3500bd
:104038000042eb00044f78000b0037003e4290002e
:104048001e424200844078002e40900002ff070084
:104058003e4290001e424200844078004e4090004c
:10406800fdfe07001e4fe8001e4278008482fb0018
:104078005e4290000483fb003e4290000482fb00f5
:10408800040253000402e800848f5200ebff35005d
:104098000080fa00000006000400fa00204798009b
:1040a80084822000144278000482fb00e50242006a
:1040b800f4072000848f52000f00340094822000ff
:1040c800144278000442e8000440780029e8b70068
:1040d8009482200014427800e74f52000300360013
:1040e8000042eb000440780029e8b7000042eb00ea
:1040f8000440780028e8b7009582200095427800af
:1041080084822000144278008540780004407800ba
:10411800c5fd07000042eb00044f78001a00370085
:104128002e4290000402fb006522b90004027800c8
:1041380005f62f00848242001e4378000682fb00a9
:1041480004824200059a280065427a0004407800fb
:1041580030fe070084822000144278000442e80000
:104168000440780028e8b70095822000954278003e
:10417800848220001442780085407800044078004a
:10418800a9fd07001e4fe8001e427800e44f5200c8
:10419800e3ff36000040eb001efe0700848220008b
:1041a800144278000442e8000440780028e8b70088
:1041b8000080fa00000006000400fa00204798007a
:1041c80084822000144278000482fb00e802420046
:1041d800f4072000848f52001400340094822000d9
:1041e800144278000442e8000440780029e8b70047
:1041f80094822000144278000442e80004407800c9
:1042080029e8b7009482200014427800e74f520052
:10421800030036000042eb000440780029e8b700ac
:104228000042eb000440780028e8b7000042eb00a9
:10423800044f780056003700958220009542780098
:104248008482200014427800854078000440780079
:1042580075fd07002e4290000402fb000402b10025
:10426800c422dd001e4378000682fb00048242005f
:10427800053f280065427a0004407800e5fd070004
:1042880094822000144278000442e80084427800b6
:1042980084cbb30004c272000440780004fd070018
:1042a8008582200095427800f4c3b30084cf520081
:1042b8000c003e0010c0b3006cfd07008582200092
:1042c8009542780004c4b30004c272000440780028
:1042d800f7fc070014c0b300044078002ae8b700d0
:1042e800120037008482200014427800e04f520008
:1042f8000e0035000040eb005cfd070085822000c1
:104308009542780004ccb30004c24200844278008d
:1043180004c4b30004c2720004407800e4fc07003f
:104328000042eb00044078002ae8b7002e429000d3
:104338000402fb000402b100c422dd001e43780021
:104348000682fb000482420068024200053f280002
:1043580065427a0004407800aefd070084822000a0
:10436800144278000442e8000440780028e8b700c6
:1043780095822000954278008482200014427800bb
:10438800854078000440780027fd07001e4fe800ac
:104398001e427800e74f5200a7ff36000080fa005f
:1043a800000006000200fa00000f78000500370040
:1043b8001e027800144278000440780036ff070097
:1043c8001e0fe8001e02780014427800e04f5200e9
:1043d800f7ff3a000080fa00000006000600fa0025
:1043e800404798004e4290000482fb00cfa2de00b6
:1043f8000400be002df007000002be006266260021
:1044080063fa23000400be00cbef07000002be00e1
:104418000400be000af007000002be00244798000e
:104428000042eb00044f7800140037002e42900041
:1044380014479800070037009e4090001e407800ff
:1044480005fe07009e4290002e42900004c24200e2
:10445800144798001e4290008482fb002e42900070
:104468000482fb000604200004025300848f5200db
:10447800f1ff35001e427800634f4200e4c7b300e5
:104488009e42780084cf5200e8ff36004e429000ea
:1044980004cfe9000f0037000042eb0014479800f2
:1044a800060037009e4090001e407800eafd070095
:1044b8001e42900004c2e800144798009e429000f3
:1044c800e4c3b30084cf5200f6ff36004e4290009a
:1044d8001e4f4200b4c7b3009e42780084cf5200fa
:1044e800edff36000080fa00000006000600fa0022
:1044f8002047980031479800424798005347980052
:104508000042eb00044f78000042eb00044f7800b3
:104518000b0037002e4290001e424200be40900021
:1045280004407800eefd07002e4290001e42420033
:10453800de40900004407800e9fd07001e4fe800c7
:104548001e4278008482fb004e4290000483fb00e8
:104558002e4290000482fb00040253000402e8008b
:10456800848f5200ebff35000042eb00044f7800c7
:104578000b0037003e4290001e4242008440780003
:104588002e409000d6fd07003e4290001e42420099
:10459800844078004e409000d1fd07001e4fe8008f
:1045a8001e4278008482fb005e4290000483fb0078
:1045b8003e4290000482fb00040253000402e8001b
:1045c800848f5200ebff35000080fa0000000600df
:1045d8000000fa00a902a900a922a900c702a800a0
:1045e800c722a8000080fa00000006000000fa00b8
:1045f800a1a2a900041580000480a1000490a100d4
:1046080004158800041580000450a0000460a00070
:104618000470a00004158800a022a80014158000ca
:1046280004d0a00004e0a00004f0a0001415880045
:10463800a342a800141580000420a0000430a100a3
:104648000440a1000450a10014158800a222a9006a
:10465800a202a9002515800004f02100048272003e
:1046680024158800a4e2a8002515800004fc2f006a
:1046780004826200f401b30024158800a782a9000f
:10468800a682a900341580000400a1000410a1002e
:104698000420a1000430a1003415880034158000de
:1046a8000480a1000490a10004a0a10004b0a1000e
:1046b800341588000430200054158800a042a80052
:1046c8008560a8008d60a8000080fa000000060040
:020000040000fa
:1046d800280800000400000002000000000000009c
:1046e8000000000016080000120000000200000090
:1046f80000000100000000000000000000000000b1
:104708000000000000000000000800001600000083
:08471800000000000000000099
:020000040000fa
:0200000401f009
:04000000f57f000088
:020000040000fa
:0200000401f009
:04000400ff7f00007a
:020000040000fa
:0200000401f009
:04001400ffff0000ea
:00000001FF
