:020000040000fa
:080000000001040000000000f3
:020000040000fa
:100008009c0100009c0100009c0100009c01000074
:100018009c0100009c0100009c0100009c01000064
:100028009c0100009c0100009c010000e2190000f6
:100038009c0100009c010000401900009c01000088
:100048009c0100008e1b00009c010000b21d0000f6
:100058009c0100009c0100009c0100009c01000024
:100068009c0100009c0100009c0100009c01000014
:100078009c0100009c0100009c0100009c01000004
:100088009c0100009c0100009c0100009c010000f4
:100098009c0100009c0100009c0100009c010000e4
:1000a8009c0100009c0100009c0100009c010000d4
:1000b8009c0100009c0100009c0100009c010000c4
:1000c8009c0100009c0100009c0100009c010000b4
:1000d8009c0100009c0100009c0100009c010000a4
:1000e8009c0100009c0100009c0100009c01000094
:0800f8009c0100009c010000c6
:020000040000fa
:100108009c0100009c0100009c0100009c01000073
:100118009c0100009c0100009c0100009c01000063
:100128009c0100009c0100009c010000e2190000f5
:100138009c0100009c010000401900009c01000087
:100148009c0100008e1b00009c010000b21d0000f5
:100158009c0100009c0100009c0100009c01000023
:100168009c0100009c0100009c0100009c01000013
:100178009c0100009c0100009c0100009c01000003
:100188009c0100009c0100009c0100009c010000f3
:100198009c0100009c0100009c0100009c010000e3
:1001a8009c0100009c0100009c0100009c010000d3
:1001b8009c0100009c0100009c0100009c010000c3
:1001c8009c0100009c0100009c0100009c010000b3
:1001d8009c0100009c0100009c0100009c010000a3
:1001e8009c0100009c0100009c0100009c01000093
:0801f8009c0100009c010000c5
:020000040000fa
:100200004f9a20000eff20000e0188000000000021
:1002100000012000200288000c00070020f62200c8
:100220000100200011000700000020000000e00095
:10023000020032000000020000000000ee20020078
:10024000000000000040da000000fe004440a90069
:10025000c0c420000000e0000300320000002000c5
:10026000a00188004440a800000006009101880019
:10027000800078000000eb0015003700e2804000ad
:1002800032a0b4009101ba00e280400032a0b40074
:100290009102ba00e280400032a0b4000002eb00fc
:1002a000472bde00f507b200602ce10004003a00a5
:1002b0000059eb008301e900fdff3e000400370018
:1002c0006128e100010032000082eb000400070019
:1002d0001101ba000200e000e8ff3a000000060049
:1002e0003159ba008301e9000c0032002159ba00eb
:1002f0008301e900080032000400e00003003a0036
:10030000e280400032a0b400f5ff370011d9ba00f6
:100310008301e900faff3a008100e800e180400033
:1003200032a0b40000000600000000000000000041
:1003300000000000000000000040da000000fe00a5
:10034000889fbe008a9fbe008c1f7800990007001e
:10035000a000330003866c006450e1002e003200e0
:100360006420e100330032006150e1002f003200d0
:100370006120e1003100320085855500eb07b000b7
:10038000090020000804200005003700080444008c
:1003900089844c000a0031000603430087834b0028
:1003a0000001530081815b00f8ff33000203be00af
:1003b0000800a0000804440089844c00f6ff3900be
:1003c000c639dd00830173000100320013002000f4
:1003d0008904d1000884d3000998a30005003200e5
:1003e0000800a7000300a0008904d1000884d300fe
:1003f0008b05e8008904d1000884d3000001eb00dc
:100400000281d2003000070001f0a1000cf0a7002b
:1004100001f0a000780037006420e1007a0032008b
:100420000801be000200be00f7ff37006120e100b6
:10043000750032006000b800f3ff370000002000b4
:1004400001f82700f0ff37000001be00440007005c
:100450000470a70003f0a10003f8a30013003a0002
:100460006509b10010003200090035006928e1007b
:1004700002003500010028000000050000004000d7
:10048000818048008502e900fcff3a000000060078
:10049000f88f4200050035008100d1000080d300b4
:1004a0008502e800fcff3a00000006008000eb0037
:1004b000000005004f89de008201780089003700c6
:1004c0006011b8009700370081002000618055005e
:1004d0000b003d000b00200061fe2f000100e10039
:1004e0001d00340082817100610164008904d10023
:1004f0000884d3000000e800faff3a0071002000f1
:100500006100640003007000020060000900320016
:1005100061044400e0844c000988a5000500320015
:100520008b05e8006808e10002003a008904d10068
:100530000884d300f20f20000258e10005003d00be
:10054000c75ddd00f907b2008980750008007800fa
:10055000000006000bf827008b0078000000050063
:10056000c70ade00f107b200f50fb2000800320042
:10057000e1cf4200020032000170a000240005001b
:10058000810f7000010032000408050044000500de
:10059000810f700002003a00140005008502e90096
:1005a0000000400081c04800fcff3b000170a0003b
:1005b000240005000004be00e9ff07000003be00a0
:1005c0000405be000200be00e5ff0700844f750071
:1005d000000006000200be006450e1000500360085
:1005e0006420e100020036000968a30001003a001f
:1005f0000800be000160a0004f0678004f05be0055
:100600004f04be0000000600f0ff2f00f1ff27009e
:10061000f9ff3700889fbe008a9fbe008c1f7800bc
:10062000e4ff0700ebff330003866c006450e10039
:10063000240032006420e100270032006150e10014
:10064000220032006120e100210032008b8542004f
:10065000eb07b1000134b800003ab80008044200ca
:1006600089844a00013ab8000030b8008880400010
:1006700009014a0004003300000040008180480066
:10068000020149008b05e900c909dd008301700002
:100690000100320013002000c814de004814dd0001
:1006a0004709de001200b200c808de0008847000ae
:1006b00085ff070001f0a1000cf0a70001f0a000e9
:1006c000cdff37006120e100cfff32000801be00fe
:1006d0000200be00f7ff37006150e100fcff3a0066
:1006e000c9ff3700881f7800030478000300e0008a
:1006f00007003d0060001000e08018006001190054
:10070000e081190002003b0001f02d0003003700da
:100710000400070008f0a70001f0a0004f047800d3
:1007200000000600889fbe008a9fbe000082700005
:100730000402710004827100260032000004be0031
:100740000200be006011b8006b0920009502200075
:100750000182cf000a0039000541b1000082cf00bc
:10076000070039000541b1000982cf0004003900bb
:100770000541b1000882cf00010039000541b100f8
:1007800005425200120032000a003b0082817100d3
:10079000610164008100d1000080d3008984d3000e
:1007a0000884d3008b05e8000442e800f7ff3a0014
:1007b000070037000804440089844c00000048000a
:1007c000818048008b05e9000442e900f9ff3a0006
:1007d0003dff07004f05be004f04be0000000600ad
:1007e000b042780031c2520002003a00e0cf52001d
:1007f000fbff3a000400fb00000006000c00fa00ba
:10080000889fbe0000047800f4ff2700d4bf9f003b
:100810008004eb0099bf9f0088bf9f00a8bf9f0086
:10082000240c2000b4bf9f0078815700cfb0970000
:1008300070805700070007000fba9700094a780038
:100840000fba9700080052004f04be000080fa0063
:10085000000006002f03b000889fbe008a9fbe00e4
:100860008c9fbe008e1f7800e0af9f00c1af9f003d
:10087000b2b79f008006eb006e023700cfa897004a
:100880008100e800c1af9f0054c2b300844f500004
:1008900006003a00010278000006eb0001c3b30035
:1008a00000c2b300b7c2b300070037000000fb006e
:1008b000efa897006b020700e10f40005d023200d5
:1008c0008d06e8005b02370084027800344378002c
:1008d000d2c2b300824f53000900320005003c0031
:1008e000804f530008003200874f53000c003a003d
:1008f00007003700814f530009003a000600370017
:100900000c30a000f0ff37000c00a000eeff370015
:100910000c10a000ecff37000c20a000eaff37000d
:1009200062026600010032000c00a100680266004d
:10093000010032000c20a1000602fb000403b100fc
:10094000e90f52000c003e00050378000002eb00a6
:100950006a22b900b603fb000703b100048243001a
:10096000860278009603fb000703b100e98f53006d
:10097000f7ff3600080037000002eb00a7c2b30003
:10098000874f530004003a00bfb19700430278003c
:10099000b3b79f008502e8000007eb00e6c2b30092
:1009a000954f13000a003a000ce0a0006443530086
:1009b000d54f13000200320005037800080037000d
:1009c0003fb3970046077800b6b79f008502e8005e
:1009d00005037800080037006a70b90000874300fb
:1009e00086027800b603fb000703b100e98f5300cd
:1009f000f9ff3600f6ff3700b6427800c6af9f0019
:100a0000c0c6b30080cf5200250032000f003c006a
:100a100036c6b30086cf52006e00320004003c00a0
:100a2000e0cf5200080232006b4353000f00370042
:100a300046c6b30086cf520017003200654343001c
:100a400086cf520083003a001300370036c7b30048
:100a500086cf52001f00320007003c006443530061
:100a600086cf5200140032000643e80086cf5200c1
:100a700078003a001300370056c7b30086cf520003
:100a8000790032006343430086cf520071003a0080
:100a9000a5c79f000d003700a5c79f007400370051
:100aa000f003660005012000010032000500280067
:100ab00005067600d0ff3700a5c79f000c60a00098
:100ac0006b003700a5c79f000c50a0000c70a00061
:100ad00067003700a5c79f00bfb09700c10278002c
:100ae000b1b79f0005047800e08f520001003a0082
:100af000e8962000080378008002eb000100370030
:100b00008502e800e6c37a00e0cf5300fcff3a001c
:100b100085047800e00f570003003200890f57006a
:100b2000010031008e0478000007eb00890f5200ad
:100b300001003600090752006806660014003a00fa
:100b400007003700efa8970000022000c50107004a
:100b5000e10f4000010032008d06e8000e07e900b9
:100b6000e00f5700f7ff3a000087eb00080037005e
:100b7000080278003400fb0004047800efa8970016
:100b8000b8010700e10f4000010032008d06e800c7
:100b9000090278008404e900e00f5200f4ff3a00f3
:100ba000e00f5600a301320007003700efa89700be
:100bb00000022000ab010700e10f400001003200fd
:100bc0008d06e8000e07e900e00f5700f7ff3a0036
:100bd000980137003fb19700c2027800b2b79f007a
:100be00005007800cf80de000101780082017800e6
:100bf000f0af9f0081b79f0092b79f00a3b79f00ff
:100c00004800de00c80add0000807200a0c79f0017
:100c10007003660009003200e04f50000700320008
:100c2000e14f400005003200b0c79f006fdb970026
:100c3000c6c79f002900200003003700efdb9700a4
:100c4000b7c79f001900200038fc2f000f04440094
:100c5000b0ff3700a5c79f0028fc2f000f044400f9
:100c600019002000abff3700a5c79f000c0cb30094
:100c70008c027800050cb2002b003a00e00f560001
:100c800005003d003fb097004005be004004be0097
:100c9000b0b79f0017003700f00266000f00320067
:100ca000bfb297004501be00b5b79f00c2a79f0025
:100cb000d3a79f000503780096029000cfaade001c
:100cc000e5a79f00f5a79f004fa49700dfa497001a
:100cd0006fa59700ffa59700060037003fb097006b
:100ce00040047800b0b79f00cfc4de00090578004b
:100cf0008a057800e00f5400e08f5c00e00f5d0093
:100d0000e08f5d0025003d003c00b3006000b800ae
:100d10006011b80008045000898458000a05590081
:100d20008b8559001d003700e00f560005003d007f
:100d3000bfb097004105be004104be00b1b79f009f
:100d400016003700f00266000e003200bfb29700b6
:100d50004501be00b5b79f0082af9f0093af9f00d3
:100d60000003eb00a6af9f008003eb00b7af9f002e
:100d70000fac97009fac97002fad9700bfad9700c9
:100d8000060037003fb0970040047800b0b79f00de
:100d9000090020000a0020000b002000e00f57008f
:100da00007003a001e002000e00f5400e08f5c00b6
:100db000e00f5d00e08f5d00010032000007eb00f6
:100dc0008c007800010cb200f1af9f0005042000f8
:100dd000858f50002c00320003003c00e08f500053
:100de000080032003c003700050820007fa997006a
:100df000850f510010003200050c2000850f5100b6
:100e000035003a00468b200015c0b3003600be0006
:100e10003601be000040e10001c8e10002d0e1005f
:100e200003d8e1002b0039008542e800f4cf5200de
:100e3000f6ff3a002700370015c0b300000120007c
:100e4000010020006011b8000040e10001c8e1008d
:100e500002d0e10003d8e1001e0039004600200066
:100e60000000d0008180d2000281d2008381d200b4
:100e70000603e900faff3a008542e800f0cf52008d
:100e8000f1ff3a001300370015c0b30080002000c6
:100e9000010020006011b8000040e10001c8e1003d
:100ea00002d0e10003d8e1000a0039003700200039
:100eb0000000d0008180d2000281d2008381d20064
:100ec0008703e900faff3a008542e800f5cf5200b7
:100ed000f1ff3a00a5c79f002fc097008002fb00da
:100ee0008e8f520002003d00aec79f000300370006
:100ef000850f570001003d0005077800e00f520004
:100f000003003200e3026600010032000402e9003f
:100f10000500240085026600050032008e0f520095
:100f2000020034000e025200010037000002eb0004
:100f30002fc197008202fb008001eb00d3af9f001e
:100f4000850f52000200340085025200d5af9f0089
:100f5000640266002c003200e20266006102660054
:100f6000e08f520006003200b0022000e00f520075
:100f7000010032000080e800efa89700040037006d
:100f8000e00f520006003200efa897000002200098
:100f9000b4000700e10f4000010032008d06e800b8
:100fa0005faa9700e00f52008d0032000802be00d9
:100fb0000a03be00dfac9700efa8970000032000f3
:100fc000c4b79f00d5b79f00e6b79f00f7b79f0053
:100fd000a40007004fb29700dfb297006fb39700ed
:100fe000ffb39700e10f4000010032008d06e800da
:100ff0008904e900f0ff3a00d9af9f000605be0062
:101000000404be0076003700dfaa9700e08f52008c
:10101000180032006802660016003a000802be009e
:101020000a03be00dfac9700efa897000002200083
:10103000c4b79f00d5b79f00e6b79f00f7b79f00e2
:10104000880007004fb29700dfb297006fb3970098
:10105000ffb39700e10f4000010032008d06e80069
:101060008904e900f0ff3a00d9af9f000605be00f1
:101070000404be00e202660061026600e08f5200d6
:1010800006003200b0022000e00f520001003200e2
:101090000080e800efa8970004003700e00f52003e
:1010a0004f003200efa89700000220006d000700fb
:1010b000e10f40004a0032008d06e800480037008a
:1010c0000e07e9007fab970007042000870f53004d
:1010d0002d00320003003c00e00f530008003200f6
:1010e00037003700040820007fae9700840f5600b9
:1010f00012003200040c2000840f560030003a0029
:101100004372dd00c08a2000000242005403be008a
:101110004402be000800be000a01be00b401070080
:10112000a4002000050020006033b800b7010700cc
:1011300004c3b3000442400020003700d4952000cf
:10114000bfa29700e08f520001003200c49420003b
:10115000c272dd000800be000a01be008502e9007f
:10116000050033008301d1000281d3008180d300c8
:101170000080d300f9ff37006f0060006440780002
:10118000a0c79f000e0037006372b9000800be00c0
:101190000a01be00040678000c06e90005003300d1
:1011a0008301d1000281d3008180d3000080d3006d
:1011b000f9ff3700674260000443b000a4c79f00f6
:1011c000afc097000100fb00efa8970025000700c3
:1011d000e10f4000060032008d06e80004003700f1
:1011e0000c0178000202b200b2a79f008cbf9f00e2
:1011f000e00f5700b2ff3a000fbe97006806660086
:101200000c003200dfa99700e08f51000900340084
:1012100003067800efa897000002200011000700e5
:10122000e10f4000010032008d06e8000c06e900e5
:10123000f8ff3a004faa970014407800a0c79f001b
:10124000e04f50008dfd3a000d0078004f07780008
:101250004f06be004f05be004f04be002f03b10075
:1012600000000600889fbe0001047800380290004c
:10127000e20262008084eb003b003200040378004d
:101280000620b2009802900002003a00e08f52005f
:1012900035003a000490a0003404980080047800df
:1012a000f90fb200e08f520002003a00a80290004d
:1012b000050c7800ea8f540005003a000408b200db
:1012c00003003a0088007800d0002000e5ff070006
:1012d00018029000d8029000850f52000b003200d7
:1012e0000402e8001404980018027800094a780003
:1012f000040ce80015c0b300c4992000054a78002a
:10130000ea8f540018003a00050037008800780082
:1013100009407800170007008004780012003700a9
:10132000380290000410b2000f0032001801900043
:10133000a80090004800900052000700180290009a
:10134000840f500004003200380290000403b30000
:10135000340498008084eb000002eb001404980031
:1013600028029000040c7800090078004f04be00a9
:10137000000006000200fa00889fbe00a0ff9f0048
:101380000104780038029000840278000504b2005d
:10139000020032000000fb0035003700e20262006c
:1013a00005003a000403b3003404980015049800c3
:1013b0000080eb002e003700d8049000e08f54002e
:1013c00006003a0012002000e68057004800900016
:1013d0002c0007001904980023003700a802900091
:1013e000e08f520008003a00f5992000250498008b
:1013f000050c78002500200055049800150498007d
:101400000430a0003404980018019000a800900057
:10141000480090001b000700280290008082eb002b
:1014200015049800affa9700054a7800040ce8000c
:101430002ffa9700ea4f52000b003a003802900052
:101440000410b2000800320018019000a8009000bb
:10145000480090000b0007000002eb001404980005
:10146000a8029000050c78002ffa97000400fb00fa
:101470004f04be000080fa000000060000c0da0041
:10148000000006000a00fa00e20f500022003e00b1
:10149000144d8000e10f520006003200e7212000c9
:1014a000a62120008421200065212000e08f530028
:1014b00004003a004721200006212000e4202000fb
:1014c000c5202000000028001500600003003a003d
:1014d000800b780007002800958a730005402000e3
:1014e0009482620001003a0014a0a00082027800f9
:1014f00006003700940378000710b200fdff3200a9
:10150000b103fb00070b78008502e900e08f520071
:10151000f8ff3a000800370034002000b4bf9f00f5
:10152000c0bf9f00d1bf9f00e2bf9f006a805700ed
:10153000d2ff07006fb99700020078000080fa0020
:1015400000000600889fbe008a9fbe003004be00d7
:101550002005be000404440085844c0006054d00af
:1015600087854d000898be000a90be000440e10047
:1015700005c8e10006d0e10007d8e1000200310013
:10158000680040001008e8004f05be004f04be0090
:10159000000006001000fa00889fbe008a9fbe006f
:1015a0000605be000404be003002be002003be00db
:1015b000c4b79f00d5b79f00e6b79f00f7b79f005d
:1015c0000802520089825a000a035b008b835b0089
:1015d00084bf9f0095bf9f00a6bf9f00b7bf9f001d
:1015e0000498be000698be00110020004fb297007c
:1015f000dfb297006fb39700ffb397000820e100b8
:1016000009a8e1000ab0e1000bb8e10001003900cf
:101610008000eb00108810004f05be004f04be0094
:101620000080fa00000006001400fa00889fbe0047
:101630008a9fbe008c9fbe003f0007000605be00cb
:101640000404be000006eb00ccb79f00bcb79f00af
:10165000acb79f009cb79f008cb79f000d04200083
:101660004fb39700bfb29700860343002fb2970095
:10167000e00f530004003d003d0007000f00400054
:10168000b0ff070003003700390007000f004000db
:10169000c0ff0700cfb2970095bf9f00e08f5200b8
:1016a000090035002b000700140020000500200071
:1016b0006033b80000007200818072000201730084
:1016c000838173001c0007000c06e8008d0f560094
:1016d000e3ff3a001fba9700e00f520005003d00fb
:1016e0000802be000a03be0000fe2f000f004000eb
:1016f00094ff07004faa9700e00f520008003a003d
:101700000fb497009fb497002fb59700bfb597000f
:10171000d8b79f00e9b79f00fab79f008bbf9f0023
:101720000c0007004f06be004f05be004f04be0070
:101730000080fa000000060001000700000006001b
:1017400090b79f00a1b79f00b2b79f00c3b79f009b
:101750000000060001000700000006001fb097000f
:10176000afb097003fb19700cfb1970000000600df
:101770004f2bde0087037300a7b79f004f23de00c7
:10178000858242008502730095b79f00ffaa9700eb
:101790004f2bde00040242000402730084b79f0056
:1017a0006faa97004f23de008582420085027300f6
:1017b000f5af9f00e9ff07004f18de00040242006a
:1017c00000027200e4af9f00e4ff07000000400049
:1017d000818048000201490083814900d8ff070049
:1017e0000802be000a03be0000fe2f000000060033
:1017f000881f780018002000881f78008aff0700e3
:101800008f87e9004f04780000000600801feb007e
:1018100085ff07008f87e90000000600889fbe0053
:101820008a9fbe00e00f5000e08f5800e00f590083
:10183000e08f59000c003d006044b8006055b800ce
:101840000000540081805c0002015d0083815d0026
:10185000180020001500070008003d0018000700d0
:101860000004eb00050037000004eb000f00070048
:1018700002003d001200070018002000dcff0700f6
:10188000e00f5400060032006022b8006033b80058
:101890000000520081805a0002015b0083815b00de
:1018a0004f05be004f04be0000000600e00f5200ce
:1018b000e08f5a00e00f5b00e08f5b000000060045
:1018c0006044b8006055b8000402540085825c0092
:1018d00006035d0087835d0000000600889fbe0050
:1018e0008a9fbe008c1f7800e00f5000e08f5800e8
:1018f000e00f5900e08f59000d003d006044b80032
:101900006055b8000000540081805c0002015d0059
:1019100083815d001c0020000820e10009a8e1008f
:101920000ab0e1000bb8e1000d003d0008003700ef
:101930000006eb00e00f5200e08f5a00e00f5b0062
:10194000e08f5b0006003d006044b8006055b800c1
:101950000402540085825c0006035d0087835d00fd
:10196000aaff0700e00f5600060032006022b80010
:101970006033b8000000520081805a0002015b0011
:1019800083815b004f0678004f05be004f04be0008
:04199000000006004d
:020000040000fa
:101994000000000000000000000000000000000043
:1019a4000000000000000000000000000000000033
:1019b400000000003eff0000ff3e000000000000a9
:1019c40000000000000d00000d00000000000000f9
:1019d40000040000070300000004000007030000e7
:1019e40000000000000000000000000000000000f3
:1019f40010fe0000fe10000010fe0000fe100000ab
:101a0400010f00000f010000010f00000f01000092
:101a14001c3e000022ff0000ff420000ce8c0000ac
:101a240003070000040f00000f0400000703000078
:101a34000000000006c60000f03c00000e0200009a
:101a44000004000007030000000600000600000078
:101a54001e3f0000e1c10000412100003f1e0000c4
:101a6400060f0000090900000b0c00001e16000000
:101a74000000000004070000030000000000000054
:101a84000000000000000000000000000000000052
:101a940000000000f8fe0000070100000000000044
:101aa40000000000000700000e0800000000000015
:101ab4000000000001070000fef800000000000024
:101ac40000000000080e00000701000000000000f4
:101ad40020a80000f870000070f80000a8200000a2
:101ae40000000000000000000000000000000000f2
:101af4002020000020fc0000fc200000202000002a
:101b040000000000000100000100000000000000cf
:101b140000000000000000000000000000000000c1
:101b240000000000203c00001c0000000000000039
:101b340020200000202000002020000020200000a1
:101b44000000000000000000000000000000000091
:101b54000000000000000000000000000000000081
:101b640000000000000c00000c0000000000000059
:101b74000000000000c00000f03c00000f03000063
:101b8400000c00000f030000000000000000000033
:101b9400feff00000101000001010000fffe000043
:101ba400070f000008080000080800000f070000e5
:101bb4000004000006ff0000ff0000000000000019
:101bc40000080000080f00000f08000008000000d3
:101bd4000203000081c10000613100001f0e0000fb
:101be4000e0f00000908000008080000080c00009f
:101bf400020300000121000021210000ffde00009b
:101c0400040c000008080000080800000f0700008a
:101c1400e0f00000988c000086ff0000ff00000048
:101c24000000000000000000080f00000f08000082
:101c34003f3f00002121000021210000e1c10000fc
:101c4400040c000008080000080800000f0700004a
:101c5400fcfe00002321000021210000e0c0000060
:101c6400070f000008080000080800000f07000024
:101c74000303000001810000e17900001f07000058
:101c840000000000000f00000f0000000000000032
:101c9400deff00002121000021210000ffde000002
:101ca400070f000008080000080800000f070000e4
:101cb4001e3f00002121000021210000fffe000042
:101cc4000008000008080000080c000007030000da
:101cd40000000000001800001800000000000000d0
:101ce40000000000000600000600000000000000e4
:101cf40000000000001800001800000000000000b0
:101d040000000000101e00000e0000000000000093
:101d140040e00000b01800000c06000002000000c3
:101d24000000000001030000060c00000800000091
:101d340000a00000a0a00000a0a00000a0000000df
:101d4400000000000000000000000000000000008f
:101d540000020000060c000018b00000e040000083
:101d6400000800000c060000030100000000000051
:101d74000203000001c10000e13100001f0e000059
:101d840000000000000d00000d0000000000000035
:101d94000203000001c10000e13100001f0e000039
:101da40000000000000d00000d0000000000000015
:101db400f8fc00008683000083860000fcf8000025
:101dc4000f0f000000000000000000000f0f0000d3
:101dd400ffff00002121000021210000ffde0000a0
:101de4000f0f000008080000080800000f0700009b
:101df400fcfe0000030100000101000003060000d6
:101e0400030700000c080000080800000c0600008e
:101e140001ff0000ff01000001030000fefc0000c0
:101e2400080f00000f080000080c00000703000062
:101e340001ff0000ff2100002171000003030000e6
:101e4400080f00000f080000080800000c0c000038
:101e540001ff0000ff2100002171000003030000c6
:101e6400080f00000f080000000000000000000040
:101e7400fcfe00000301000041410000c3c6000055
:101e8400030700000c08000008080000070f00000a
:101e9400ffff00002020000020200000ffff0000c2
:101ea4000f0f000000000000000000000f0f0000f2
:101eb4000001000001ff0000ff010000010000001c
:101ec40000080000080f00000f08000008000000d0
:101ed400000000000000000001ff0000ff010000fe
:101ee400060e000008080000080f000007000000ac
:101ef40001ff0000ff700000d88c00000703000001
:101f0400080f00000f000000000100000f0e000089
:101f140001ff0000ff0100000000000000000000bd
:101f2400080f00000f080000080800000c0c000057
:101f3400ffff00000c780000780c0000ffff000099
:101f44000f0f000000000000000000000f0f000051
:101f5400ffff00001c38000070e00000ffff0000dd
:101f64000f0f000000000000000000000f0f000031
:101f7400feff00000101000001010000fffe00005f
:101f8400070f000008080000080800000f07000001
:101f940001ff0000ff210000212100003f1e00007e
:101fa400080f00000f0800000000000000000000ff
:101fb400feff00000101000001010000fffe00001f
:101fc400070f0000080e00001c3800002f07000057
:101fd40001ff0000ff21000021610000ff9e0000be
:101fe400080f00000f080000000000000f0f0000a1
:101ff4000e1f00003121000021610000c78600008f
:10200400060e000008080000080800000f07000082
:102014000303000001ff0000ff01000003030000b0
:1020240000000000080f00000f080000000000007e
:10203400ffff00000000000000000000ffff0000a0
:10204400070f000008080000080800000f07000040
:10205400ffff00000000000000000000ffff000080
:1020640001030000060c00000c0600000301000040
:10207400ffff000000e00000e0000000ffff0000a0
:10208400010f00000e030000030e00000f0100000a
:10209400070f000098f00000f09800000f07000000
:1020a4000e0f000001000000000100000f0e0000f0
:1020b4000f1f000030e00000e03000001f0f0000a0
:1020c40000000000080f00000f08000000000000de
:1020d40003830000c1610000311900000f070000f4
:1020e4000f0f000008080000080800000c0c000096
:1020f40000000000ffff00000101000000000000dc
:10210400000000000f0f000008080000000000009d
:1021140055aa000055aa000055aa000055aa0000bf
:1021240055aa000055aa000055aa000055aa0000af
:102134000000000001010000ffff0000000000009b
:1021440000000000080800000f0f0000000000005d
:10215400080c000006030000030600000c08000041
:10216400000000000000000000000000000000006b
:10217400000000000000000000000000000000005b
:1021840010100000101000001010000010100000cb
:1021940000000000080f000007000000000000001d
:1021a400000000000000000000000000000000002b
:1021b400009000009090000090f00000e00000000b
:1021c400070f000008080000080700000f080000bf
:1021d40001ff0000ff10000010300000e0c000000c
:1021e400080f000007080000080800000f0700009f
:1021f400e0f000001010000010100000302000007b
:10220400070f000008080000080800000c04000084
:10221400c0e000003010000011ff0000ff000000cb
:10222400070f000008080000080700000f0800005e
:10223400e0f000009090000090900000f0e00000ba
:10224400070f000008080000080800000c04000044
:1022540000100000feff0000111100000302000046
:10226400000800000f0f000008000000000000003c
:10227400e0f000001010000010e00000f01000007a
:10228400276f000048480000487f00003f0000001e
:1022940001ff0000ff20000010100000f0e000002b
:1022a400080f00000f000000000000000f0f0000e6
:1022b4000010000010f60000f6000000000000000e
:1022c40000080000080f00000f08000008000000cc
:1022d4000000000010100000f6f6000000000000ee
:1022e40030600000404000007f3f0000000000001c
:1022f40001ff0000ffc00000c060000030100000bb
:10230400080f00000f000000010300000e0c000085
:102314000001000001ff0000ff00000000000000b9
:1023240000080000080f00000f080000080000006b
:10233400f0f0000030e00000e0300000f0e00000c9
:102344000f0f000000070000070000000f0f00003f
:1023540010f00000e010000010100000f0e0000099
:10236400000f00000f000000000000000f0f00002d
:10237400e0f000001010000010100000f0e0000079
:10238400070f000008080000080800000f070000fd
:1023940010f00000e010000010100000f0e0000059
:1023a400407f00007f480000080800000f0700007d
:1023b400e0f000001010000010e00000f010000039
:1023c400070f000008080000487f00007f4000005d
:1023d40010f00000e0100000101000003020000099
:1023e400000f00000f0000000000000000000000cb
:1023f40060f0000090900000901000003020000079
:10240400040c000008080000090900000f06000081
:1024140010100000feff000010100000000000007b
:1024240000000000070f0000080c0000040000007a
:10243400f0f000000000000000f00000f0000000d8
:10244400070f000008080000080700000f0800003c
:10245400f0f000000000000000000000f0f00000b8
:1024640001030000060c00000c060000030100003c
:10247400f0f000000080000080000000f0f0000098
:10248400070f00000c070000070c00000f070000f6
:102494001030000060c00000c06000003010000078
:1024a400080c000006030000030600000c080000ee
:1024b400f0f000000000000000000000f0f0000058
:1024c400474f000048480000486800003f1f0000d4
:1024d4003030000010900000d07000003010000078
:1024e4000c0e00000b090000080800000c0c000092
:1024f400000000000000000000000000005f000079
:1025040000000000000700000007000000140000a5
:102514007f1400007f140000242a00007f2a00009a
:102524001223000013080000646200003649000012
:1025340055220000500000000503000000000000c8
:10254400001c0000224100000000000041220000a5
:102554001c000000082a00001c2a000008080000d3
:10256400083e000008080000005000003000000091
:1025740000080000080800000808000000300000ff
:1025840030000000002000001008000004020000d9
:102594003e510000494500003e000000427f00001b
:1025a4004000000042610000514900004621000043
:1025b400414500004b31000018140000127f000058
:1025c4001027000045450000453900003c4a000042
:1025d40049490000300100007109000005030000b2
:1025e4003649000049490000360600004949000008
:1025f400291e000000360000360000000000000024
:1026040056360000000000000008000014220000fc
:1026140041140000141400001414000041220000ae
:102624001408000000020000015100000906000027
:1026340032490000794100003e7e00001111000083
:10264400117e00007f49000049490000363e000029
:1026540041410000412200007f410000412200006e
:102664001c7f000049490000494100007f09000027
:1026740009010000013e0000414100005132000008
:102684007f080000080800007f000000417f000070
:102694004100000020400000413f0000017f000095
:1026a40008140000224100007f4000004040000068
:1026b400407f000002040000027f00007f0400004d
:1026c400081000007f3e000041410000413e000030
:1026d4007f09000009090000063e00004151000086
:1026e400215e00007f090000192900004646000011
:1026f4004949000049310000010100007f01000048
:10270400013f000040400000403f00001f20000047
:10271400402000001f7f000020180000207f0000e0
:102724006314000008140000630300000478000030
:10273400040300006151000049450000430000000b
:10274400007f000041410000020400000810000066
:1027540020410000417f000000000000040200004e
:10276400010200000440000040400000404000001e
:102774000001000002040000002000005454000086
:10278400547800007f4800004444000038380000ba
:102794004444000044200000384400004448000041
:1027a4007f3800005454000054180000087e0000d4
:1027b400090100000208000014540000543c000009
:1027c4007f0800000404000078000000447d00003d
:1027d4004000000020400000443d000000000000d4
:1027e4007f10000028440000004100007f400000ea
:1027f400007c000004180000047800007c0800003d
:102804000404000078380000444400004438000008
:102814007c140000141400000808000014140000c4
:10282400187c00007c080000040400000848000034
:102834005454000054200000043f000044400000b1
:10284400203c000040400000207c00001c200000d0
:10285400402000001c3c000040300000403c0000d0
:102864004428000010280000440c000050500000d0
:10287400503c000044640000544c0000440000003c
:102884000836000041000000000000007f00000046
:1028940000000000413600000800000008080000a5
:1028a4002a1c0000080800001c2a00000808000078
:1028b4000000000000000000000000000000000014
:1028c4000000000000000000000000000000000004
:1028d40000000000000000000000000000000000f4
:1028e40000000000000000000000000000000000e4
:102cf40031320000333400003a010000ff0f0000bd
:102d0400b0020000c30f0000414c0000415200001b
:102d14004d3a00002044000065740000656b00001b
:102d2400746f0000766100006e200000706f000078
:102d34006b720000657400000a000000414c000042
:102d4400415200004d3a0000204400006574000028
:102d5400656b0000746f0000766100006e20000057
:102d6400646900006d0a0000004100004c4100004d
:102d7400524d00003a2000004465000074650000d4
:102d84006b7400006f760000616e0000206e00001e
:102d940065730000746100006e6100006b20000028
:102da400666100007a6500000a0000002d2d000015
:102db4002d530000544100005449000053540000b6
:102dc400494b0000412d00002d2d00000a20000079
:102dd4002020000047610000733a00002025000015
:102de40064200000252500000a20000020200000a7
:102df40052530000543a00002025000064200000d3
:102e0400252500000a200000202000004d6f00004e
:102e1400743a0000202500006420000025250000ed
:102e24000a20000020200000506900006e3a0000d3
:102e34002025000064200000252500000a00000071
:102e44002d2d00002d2d00002d2d00002d2d000016
:102e54002d2d00002d2d00002d2d00002d2d000006
:102e64000a0000002d2d00002d53000054410000e5
:102e74005449000053540000494b0000412d000008
:102e84002d2d00000a2000002020000047610000d2
:102e9400733a000020300000202500000a200000c2
:102ea4002020000052530000543a0000203000005b
:102eb400202500000a200000202000004d6f0000a3
:102ec400743a000020300000202500000a20000091
:102ed40020200000506900006e3a000020300000fd
:102ee400202500000a000000616c000061720000ef
:102ef4006d2000006f6e00000d000000616c00008a
:102f0400617200006d2000006f660000660d000015
:102f1400005a000061200000676100007365000032
:102f24006e6a000065200000616c000061720000a0
:102f34006d610000207500006e650000736900007b
:102f440074650000206c00006f7a0000696e000058
:102f54006b7500000a0000003132000033340000b9
:102f64000d0000007374000061740000730d000014
:102f7400006f0000747600006f720000692000008a
:102f84007672000061740000610d0000007a000098
:102f940061740000766f0000726900002076000002
:102fa40072610000746100000d00000053540000c1
:102fb4004154000053000000534500005400000039
:102fc400434c000045410000520000004f4b0000fc
:102fd40000530000544100005449000053540000c1
:102fe40049430000530000004761000073000000e3
:102ff40052530000540000004d6f000074000000a4
:10300400506900006e00000042410000434b000084
:103014000053000045540000544900004e4700008e
:1030240053000000536900006c6500006e740000da
:103034003a2000004f4e000000530000696c00006d
:10304400656e0000743a0000204f00004646000000
:10305400004100006c610000726d00003a20000025
:10306400204f00004e000000416c0000617200001f
:103074006d3a0000202000004f460000460000008a
:10308400416c0000617200006d200000696e000058
:10309400697400002e2e00002e0a00000053000068
:1030a40074610000747300000a000000536500009e
:1030b40074740000696e0000677300000a00000069
:1030c400556e000065740000612000006973000003
:1030d40070720000617600006e610000206c0000d8
:1030e4006f7a0000696e00006b6100000a00000046
:1030f40041630000636500007074000065640000b3
:1031040000200000202000002020000020200000db
:1031140020000000414c0000415200004d3a0000e4
:10312400207000006f67000072650000736e00007d
:10313400612000006c6f00007a6900006e6b000073
:10314400610a000000450000727200006f72000006
:10315400004300006c650000617200000a0000007a
:103164005469000068690000206100006c6100007f
:10317400726d000020690000736b00006c6a00002f
:1031840075630000656e00000a00000054690000c9
:1031940068690000206100006c610000726d00002d
:1031a400207500006b6c00006a7500006365000008
:1031b4006e0a000000530000696c0000656e000098
:1031c400743a0000204f00004e200000004100002f
:1031d4006c610000726d000020690000736b0000d8
:1031e4006c6a000075630000656e00000a00000050
:1031f400416c0000617200006d200000756b0000de
:103204006c6a000075630000656e00000a0000002f
:10321400416c0000617200006d3a00002020000043
:083224004f4e000020000000e5
:020000040000fa
:10322c000000fa000002eb0034088800c4122000f1
:10323c00640888001021a90084c0a9008cc0a800d3
:10324c0011e1a8000080fa00000006000200fa005c
:10325c00000f780014002000144588000002eb00d9
:10326c00044588001e027800f44488000080fa00af
:10327c0000000600849fbe00861f78003400f80012
:10328c0004002000a40188000000fa000002eb00fa
:10329c0034088800d4448000e00f520003003a0048
:1032ac00b44480000402e800b4448800b5448000b3
:1032bc00743e2000848f520005003600c444800008
:1032cc000402e800c44488000002eb00b444880007
:1032dc00c4448000fd0f5200020036001400200090
:1032ec00d444880004448000e00f520021003a00ce
:1032fc0054448000e10f52001d003a0064448000e9
:10330c000402e8006444880065448000341f2000f7
:10331c00848f52000e003e00241680004b22de00eb
:10332c006142620004c2ea00614262000482fb0056
:10333c00610262004b22dd0026168000f57f2f0013
:10334c008502630004827200241688000100370095
:10335c00c562a90065448000843e2000848f520021
:10336c0004003a000002eb006444880001003700be
:10337c00c562a90084c0a9000080fa003400f900dd
:10338c004f0378004f02be00004006000000fa0018
:10339c000002eb0004088800440620001408880092
:1033ac000421a9008460a9008c60a80005e1a80094
:1033bc000080fa0000000600849fbe003400f80074
:1033cc0004002000a40188000000fa0014458000cd
:1033dc00e10f52001b003a000002eb0004088800c9
:1033ec00e5448000f4448000848f520002003d00cc
:1033fc00d722a80001003700d722a900e54480009d
:10340c00840c2000848f520005003a000002eb006f
:10341c00e4448800044580000402e8000445880068
:10342c000545800024032000848f520002003a00de
:10343c000002eb0014458800e44480000402e8001c
:10344c00e44488008460a9000080fa003400f9008c
:10345c004f02be00004006000000fa00f44380005a
:10346c00e10f52000a003a00444480000402e800d4
:10347c0044448800140020005444880000052000b7
:10348c0072ff0700e4d021006068290004000100ed
:10349c000080fa00000006000000fa00f4438000ef
:1034ac00e10f52000a003a00144480000402e800c4
:1034bc0014448800140020005444880000052000a7
:1034cc0062ff0700e4d02100006a2900040001001b
:1034dc000080fa00000006000000fa00f4438000af
:1034ec00e10f52000a003a00344480000402e80064
:1034fc003444880014002000544488000005200047
:10350c0052ff0700e4d02100706b29000400010079
:10351c000080fa00000006000000fa00cda2a9000d
:10352c00cdc2a9000080fa00000006000000fa00dd
:10353c0054012000a41088000d42a9008d20a80081
:10354c0075108000c4ff2f00048262007410880084
:10355c000de2a8000f42a8000080fa00000006004f
:10356c006c00fa000002eb00040f78000002eb0084
:10357c00140798000002eb00240798000002eb00ef
:10358c003407980015448000344480008482420043
:10359c00444480008482420024448000048242001f
:1035ac00e00f520051003200154480004406200008
:1035bc0004aab900840278001644800034448000c8
:1035cc00040343004444800004034300244480006b
:1035dc0004024300110009008482d8000002780024
:1035ec00040f7800354480004406200004aab9007a
:1035fc0084027800164480003444800004034300a5
:10360c00444480000403430024448000040243002b
:10361c00110009008482d800000278001407980079
:10362c00454480004406200004aab90084027800b6
:10363c00164480003444800004034300444480005a
:10364c0004034300244480000402430011000900d9
:10365c008482d8000002780024079800254480005a
:10366c004406200004aab9008402780016448000a5
:10367c0034448000040343004444800004034300aa
:10368c002444800004024300110009008482d80005
:10369c00000278003407980068024700be029000d0
:1036ac00851f78002e009000801f78009e009000ef
:1036bc00811f78009e1f7800856d2900851f78007a
:1036cc00040078004af40700ea875700e5d021008f
:1036dc00680247000400780005000100e4d02100d6
:1036ec00207229000400010007003700e4d02100fb
:1036fc004073290004000100e4d02100207229004d
:10370c0004000100000000000080fa000000060028
:10371c003600f800809fbe00829fbe00849fbe00d2
:10372c00869fbe003400f80000002000a001880035
:10373c000400fa008520a90094108000244798000a
:10374c00354580008481200004824200ae42900006
:10375c00054a7800344580000402e80034458800ae
:10376c002e429000ed4f52004c003a008181200017
:10377c006077290017f4070000027800e00f520070
:10378c0005003a0014002000544488000005200075
:10379c00aefe07002e003700818120000078290042
:1037ac000cf4070000027800e00f520004003a000d
:1037bc00e4d02100b0782900040001002400370077
:1037cc0081812000e07a290002f4070000027800d1
:1037dc00e00f520005003a000002eb005444880050
:1037ec00b000200099fe07001900370081812000ed
:1037fc00407b2900f7f3070000027800e00f52002d
:10380c0002003a0056ff07001100370081812000aa
:10381c00b07b2900eff3070000027800e00f5200a4
:10382c0003003a00b000200088fe070008003700b3
:10383c0081812000907c2900e6f3070000027800cb
:10384c00e00f520002003a00000520007ffe070046
:10385c000002eb00040f78000002eb00040f78006c
:10386c0005003700848120009e0242000042eb00dc
:10387c00844a78001e0fe800344580009e027800d0
:10388c00848f5200f7ff3500e4d0210080812000a6
:10389c00040001000002eb00344588000080fa00af
:1038ac003400f9004f03be004f02be004f01be00b2
:1038bc004f00be003600f900004006000200fa007e
:1038cc00000f78000000000075108000041020002c
:1038dc0004826200e00f5200fbff32006410800093
:1038ec0066026200e60f520003003a001e027800e6
:1038fc008410880003003700f40f20001e026200c1
:10390c00841088000080fa00000006000400fa0011
:10391c00100798009e029000843e200011000900c0
:10392c008482d80000027800044f78009e42780010
:10393c000582fb000403b00004007800dfff0700e1
:10394c001e4078008082fb0084c12f0004aab900bd
:10395c00040278009e029000048242001407980032
:10396c009e02900044062000110009008482d800b9
:10397c0000027800044f78009e4278000582fb001c
:10398c000403b00004007800ccff07001e40780050
:10399c008082fb00c4f92f0004aab900040278004d
:1039ac009e02900004824200140798009e02900030
:1039bc00a4002000110009008482d80000027800c5
:1039cc00044f78009e4278000582fb000403b0008f
:1039dc0004007800b9ff07001e4078008082fb00cd
:1039ec0064ff2f0004aab900040278009e02900024
:1039fc0004824200140798001e0290000403b000d9
:103a0c0004007800adff07000080fa0000000600fb
:103a1c000400fa00100798000002eb00040f780075
:103a2c00070037001e0290001e024200144278006c
:103a3c000482fb0004007800a0ff07001e0fe800c2
:103a4c001e0290001e02420014427800e04f520009
:103a5c00f4ff3a000080fa00000006000400fa00af
:103a6c00100798000002eb00040f780001003700eb
:103a7c001e0fe8001e0290009e027800848f5200f8
:103a8c00fbff39000080fa00000006000000fa007d
:103a9c00cfa2a800cfc2a900d1a2a800d1c2a90070
:103aac00401f2000edff0700a44080002440880048
:103abc00d1a2a900d1c2a800cfa2a900cfc2a80050
:103acc00401f2000e5ff0700b44080003440880010
:103adc0024408000a413b100050020000400be00a7
:103aec0074f207000002be00d29d2a00a3d023006e
:103afc000400be00c4f207000002be000400be00b9
:103b0c004ef207000002be00040278000440880058
:103b1c0034408000042bb100050020000400be00de
:103b2c0064f207000002be00724e2a00c3c92300d3
:103b3c000400be00b4f207000002be000400be0088
:103b4c003ef207000002be00040278001440880018
:103b5c000080fa0000000600841f78003400f80092
:103b6c0004002000a40188000000fa000414800066
:103b7c0044408800141480005440880024148000b1
:103b8c006440880044408000a44088005440800079
:103b9c00b440880064408000844488008560a9009b
:103bac000080fa003400f9004f0278000040060053
:103bbc000000fa00d4448000e10f52000b003a00e0
:103bcc008544800074448000848f520005003900c5
:103bdc0014002000944488000002eb00d4448800b8
:103bec00020037000002eb009444880094448000eb
:103bfc00e10f520007003a00a4448000e00f52008d
:103c0c0004003a0014002000a444880022fe07009f
:103c1c000200370094448000a44488000080fa001d
:103c2c00000006000400fa00100798009e029000a5
:103c3c00843e2000110009008482d8000002780024
:103c4c00044f780005c3b3001ec242000440780044
:103c5c004b0707001e4078008082fb0084c12f00b8
:103c6c0004aab900040278009e029000048242006b
:103c7c00140798009e0290004406200011000900d1
:103c8c008482d80000027800044f780005c3b3008a
:103c9c001ec2420004407800390707001e4078001d
:103cac008082fb00c4f92f0004aab900040278003a
:103cbc009e02900004824200140798009e0290001d
:103ccc00a4002000110009008482d80000027800b2
:103cdc00044f780005c3b3001ec2420004407800b4
:103cec00270707001e4078008082fb0064ff2f002e
:103cfc0004aab900040278009e02900004824200db
:103d0c00140798001e029000044278000443b0008f
:103d1c00044078001a0707000080fa000000060033
:103d2c000800fa00000f780011079800220798008d
:103d3c00330798003e029000844278001e029000e7
:103d4c000442780084c342002e0290008442780022
:103d5c001e0278000442780004c342001e02900048
:103d6c00844278001e027800044278008741780073
:103d7c00064178008540780004407800c7060700ab
:103d8c000080fa00000006000000fa0013c1b30026
:103d9c0032c4b30051c0b30030c0b300bf0607003b
:103dac0031c0b300a0c0b300d904070010c3b300e6
:103dbc00f306070031c0b30030c2b300d4040700cf
:103dcc0020c3b300ee06070031c0b300c0c3b3007c
:103ddc00cf04070030c3b300e906070051c0b3009d
:103dec00a0c0b300ca04070040c3b300e406070038
:103dfc0051c0b30030c2b300c504070050c3b300b8
:103e0c00df06070051c0b300c0c3b300c0040700f5
:103e1c0060c3b300da06070071c0b300a0c0b300e2
:103e2c00bb04070070c3b300d506070071c0b30014
:103e3c0030c2b300b604070080c3b300d00607003d
:103e4c0071c0b300c0c3b300b104070090c3b3008a
:103e5c00cb06070011c0b30050c5b300ac0407007b
:103e6c00807d29008907070031c0b30050c5b3001d
:103e7c00a7040700e07d29008407070051c0b300a8
:103e8c0050c5b300a2040700207e29007f0707005d
:103e9c0071c0b30050c5b3009d040700807e29009b
:103eac007a0707000080fa00000006000800fa00fc
:103ebc0011c0b30060c2b30095040700b07e2900a6
:103ecc007207070031c0b30030c0b3009004070084
:103edc00607f29006d07070041c0b30030c0b300fc
:103eec008b040700a07f29006807070051c0b300ae
:103efc0030c0b30086040700e07f29006307070089
:103f0c0061c0b30030c0b3008104070020802900d9
:103f1c005e07070015448000344480008482420010
:103f2c004444800084824200244480000482420085
:103f3c00e00f52005c003200154480004406200063
:103f4c0004aab9008402780016448000344480002e
:103f5c0004034300444480000403430024448000d1
:103f6c0004024300110009008482d800000278008a
:103f7c00040f7800354480004406200004aab900e0
:103f8c00840278001644800034448000040343000b
:103f9c004444800004034300244480000402430092
:103fac00110009008482d8000002780014079800e0
:103fbc00454480004406200004aab900840278001d
:103fcc0016448000344480000403430044448000c1
:103fdc000403430024448000040243001100090040
:103fec008482d800000278002407980025448000c1
:103ffc004406200004aab90084027800164480000c
:10400c003444800004034300444480000403430010
:10401c002444800004024300110009008482d8006b
:10402c000002780034079800e50a22001e0378008d
:10403c007a024300f3012000040178009101200072
:10404c00a001200005000100e50a22001e029000dc
:10405c007a02420073022000040178001102200051
:10406c00a001200005000100e50a22002e029000ac
:10407c007a024200f3022000040178009102200031
:10408c00a001200005000100e50a22003e0290007c
:10409c007a0242007303200004017800110320000f
:1040ac00a00120000500010071c0b300a0c5b30041
:1040bc001704070060802900f40607000080fa004e
:1040cc00000006000000fa0011c0b30080c2b3006b
:1040dc000f040700b0802900ec06070031c0b300c4
:1040ec0050c0b3000a04070004448000e10f5200e2
:1040fc0003003a0040812900e40607000200370063
:10410c00f0812900e106070051c0b30050c0b30094
:10411c00ff030700f4438000e10f520003003a0054
:10412c00b0822900d90607000200370060832900fd
:10413c00d606070071c0b300a0c5b300f403070096
:10414c0060802900d10607000080fa0000000600fc
:10415c000c00fa00200798003107980042079800dd
:10416c00530798002e029000040f780012003700bd
:10417c003e029000140798000a0037001e029000bf
:10418c00844278001e027800044278008540780052
:10419c0004407800ea0407001e0290000402e800c4
:1041ac00140798009e0290005e029000848f5200cb
:1041bc00f2ff35001e0fe8004e0290009e027800c0
:1041cc00848f5200eaff35000080fa0000000600e0
:1041dc003200fa0006030700cffc070016040700a4
:1041ec0051040700d1fc0700248429000400780046
:1041fc0007fe0700b5070700ab070700a1e2a80000
:10420c00c162a900d322a90005fc07005ffc0700ce
:10421c00b00020000dfc0700a4a22200a5a22200e1
:10422c0044179800551798006022b800641798003e
:10423c00751798000002eb00041f98000002eb00b9
:10424c00040f78000042eb0024479800cefe0700d4
:10425c0011c0b300a0c0b300ad030700840220005e
:10426c000e02420004007800880607000b0037009d
:10427c0000000000090037000000000007003700b4
:10428c0000000000050037000000000003003700ac
:10429c0000000000010037000000000044fe070091
:1042ac00fafd0700e4438000e00f5200cd013a0014
:1042bc0004408000e00f5200ec003200054080000a
:1042cc00f4072000848f5200e8003e001440800068
:1042dc00e00f5200e500320015408000f40320008e
:1042ec00848f5200e1003e001e027800e30f520062
:1042fc000200340034002000040f780004408000d9
:10430c00e30f52000d00360004408000f60f5200ff
:10431c000a003e0014408000ff0f520007003600d8
:10432c0015408000a4022000848f520003003e0040
:10433c0014c3b30024479800c90037000440800020
:10434c00fb0f52000e00360005408000a402200036
:10435c00848f52000a003e0014408000ff0f520070
:10436c000700360015408000a4022000848f520004
:10437c0003003e0024c3b30024479800b800370064
:10438c0005408000e4032000848f52000e003600ac
:10439c000540800054042000848f52000a003e0027
:1043ac0014408000ff0f52000700360015408000bb
:1043bc00a4022000848f520003003e0034c3b300db
:1043cc0024479800a600370004408000e30f5200f9
:1043dc000c00360004408000f60f520009003e002d
:1043ec0014408000ec0f5200060036001440800090
:1043fc00f90f520003003e0044c3b3002447980059
:10440c009700370004408000fb0f52000d0036006f
:10441c0005408000a4022000848f520009003e0059
:10442c0014408000ec0f520006003600144080004f
:10443c00f90f520003003e0054c3b3002447980008
:10444c008700370005408000e4032000848f520071
:10445c000d0036000540800054042000848f52006b
:10446c0009003e0014408000ec0f5200060036009c
:10447c0014408000f90f520003003e0064c3b300e7
:10448c00244798007600370004408000e30f520068
:10449c000c00360004408000f60f520009003e006c
:1044ac0014408000e00f52000600320014408000df
:1044bc00e90f520003003e0074c3b3002447980078
:1044cc006700370004408000fb0f52000d003600df
:1044dc0005408000a4022000848f520009003e0099
:1044ec0014408000e00f520006003200144080009f
:1044fc00e90f520003003e0084c3b3002447980028
:10450c005700370005408000e4032000848f5200e0
:10451c000d0036000540800054042000848f5200aa
:10452c0009003e0014408000e00f520006003200eb
:10453c0014408000e90f520003003e0094c3b30006
:10454c0024479800460037000540800054052000a1
:10455c00848f52000f00360005408000e4072000d5
:10456c00848f52000b003e0015408000f4022000a6
:10457c00848f52000700360015408000b4032000e1
:10458c00848f520003003e0034c7b30024479800c8
:10459c003300370005408000b4042000848f5200a3
:1045ac000e00360005408000e4072000848f520086
:1045bc000a003e0014408000f90f5200070036003c
:1045cc0015408000a4022000848f520003003e009e
:1045dc0004c7b30024479800210037000540800031
:1045ec00b4042000848f52000d003600054080007a
:1045fc00e4072000848f520009003e001440800024
:10460c00ed0f52000600360014408000f70f5200e8
:10461c0003003e0034c6b300244798001000370056
:10462c0005408000b4042000848f52000c0036003a
:10463c0005408000e4072000848f520008003e00f3
:10464c0014408000e00f520005003200144080003e
:10465c00e90f520002003e00f4c6b3002447980054
:10466c00803e2000fdfc07000cff3700ae4290009e
:10467c0034c7b30084cf52000a003a0014852900d5
:10468c0004007800e2fc070024002000e4438800ca
:10469c002503070005fe07000042eb0024479800a5
:1046ac00bd003700ae42900004c7b30084cf520067
:1046bc000a003a008485290004007800d4fc070025
:1046cc0014002000e4438800170307007dfe070058
:1046dc000042eb0024479800af003700ae42900038
:1046ec00f4c6b30084cf52008a003a000002eb00fb
:1046fc002407980014002000340798000002eb00f7
:10470c002407980010003700850220008e8242009a
:10471c002e0290000482420094427800a667290081
:10472c002e029000040243001442780084cf520001
:10473c00020032000002eb00340798002e029000b9
:10474c000402e800240798002e029000e30f5200a8
:10475c00edff34003e029000e00f52002f003200bb
:10476c00b0002000b9fa07000002eb0054448800a6
:10477c002486290004007800a5fc07000002eb0049
:10478c00040f78000002eb002407980009003700a2
:10479c00850220008e8242002e029000848242000c
:1047ac00a4c2b300844a78002e0290000402e800f0
:1047bc00240798002e029000e30f5200f4ff3400ff
:1047cc0011c0b300a0c0b30051020700a08729009c
:1047dc002e0507000002eb002407980005003700a7
:1047ec00803e20009dfc07002e0290000402e80091
:1047fc0024079800ae02900034062000848f5200eb
:10480c00f7ff340011c0b300a0c0b3004002070092
:10481c00308829001d05070034003700f443800060
:10482c00e10f52000a003a00c48829000400780005
:10483c0077fc0700244480000402e800244488002c
:10484c001400200054448800000520007ffa070063
:10485c000002eb00040f78000002eb002407980024
:10486c0009003700850220008e8242002e02900043
:10487c0084824200a4c2b300844a78002e029000c5
:10488c000402e800240798002e029000e30f520067
:10489c00f4ff340011c0b300a0c0b3001c02070029
:1048ac00508a2900f90407000002eb002407980045
:1048bc0005003700803e200068fc07002e029000a7
:1048cc000402e80024079800ae0290003406200091
:1048dc00848f5200f7ff340011c0b300a0c0b300a6
:1048ec000b02070030882900e804070011c0b30050
:1048fc00a0c0b30006020700840220000e02420092
:10490c0004007800e10407000042eb002447980003
:10491c0021003700ae42900034c6b30084cf520061
:10492c001d003a00b48a29000400780038fc070006
:10493c000002eb00040f78000002eb004407980023
:10494c0009003700850220008e8242004e02900042
:10495c0084824200a4c2b300844a78004e029000c4
:10496c000402e800440798004e029000e30f520046
:10497c00f4ff340011c0b300a0c0b300e401070081
:10498c00840220000e02420004007800bf040700dd
:10499c000042eb00244798002e429000e04f52005a
:1049ac0033fe3200840220000e0242001e0242003e
:1049bc00ae429000054a78001e0fe8000042eb0062
:1049cc002447980011c0b300a0c0b300d001070069
:1049dc00840220000e02420004007800ab040700a1
:1049ec002efe3700e4438000e20f520023003a0011
:1049fc0004408000e00f52001ffe32000540800092
:104a0c00f4072000848f52001dfe3e0014408000ed
:104a1c00e00f52001cfe320015408000f403200011
:104a2c00848f52001afe3e0005408000a405200031
:104a3c00848f52000e00360005408000e4072000f1
:104a4c00848f52000a003e0014408000e00f520098
:104a5c000700320014408000e70f520004003e00b3
:104a6c00310207000002eb00e4438800c6fc07009b
:104a7c00803e2000f9fb070008fe37000440800050
:104a8c00e00f52004300320005408000f407200084
:104a9c00848f52003f003e0014408000e00f520013
:104aac003c00320015408000f4032000848f52003b
:104abc0038003e0005408000a4052000848f520081
:104acc000f00360005408000e4072000848f520060
:104adc000b003e0014408000e00f52000800320032
:104aec0014408000e70f520005003e000e02070044
:104afc000002eb00e4438800a3fc0700220037000f
:104b0c0005408000f4022000848f52000e00360015
:104b1c000540800024052000848f52000a003e00ce
:104b2c0014408000fe0f5200070036001540800034
:104b3c0074022000848f520003003e0034c7b3007f
:104b4c00244798001000370005408000f402200034
:104b5c00848f52000c003600054080002405200094
:104b6c00848f520008003e0014408000ed0f52006c
:104b7c000500360014408000f90f520002003e0080
:104b8c0014c6b30024479800803e2000b3fb0700f6
:104b9c00c2fd3700ae42900034c7b30084cf520040
:104bac0018003a0031c0b30050c0b30058010700e0
:104bbc0004448000e10f520008003a000002eb00b0
:104bcc0004448800248b29000400780090fb070023
:104bdc00f08129002d040700070037001400200085
:104bec0004448800848c29000400780088fb0700aa
:104bfc00d08d2900250407000042eb0024479800c3
:104c0c00a6fd3700ae42900014c6b30084cf52000c
:104c1c00a1fd3a0051c0b30050c0b3003c010700e5
:104c2c00f4438000e10f52000b003a005444800022
:104c3c00e00f52000f003a000002eb00f443880032
:104c4c006083290011040700948e29000400780069
:104c5c006ffb07000700370014002000f4438800a6
:104c6c00a48f29000400780069fb0700a09029009c
:104c7c00060407000042eb002447980087fd37002c
:104c8c000200fa00004f78001e427800e04f5200fc
:104c9c000500320015178000040220000482720007
:104cac00141788000400370015178000f4fd2f003e
:104cbc0004826200141788000080fa0000000600cd
:104ccc000200fa00004f78001e427800e04f5200bc
:104cdc0004003200141780000440a0001417880050
:104cec000400370015178000f4fe2f0004826200c8
:104cfc00141788000080fa00000006000200fa0079
:104d0c00004f78001e427800e04f52000400320041
:104d1c00141780000410a00014178800040037003a
:104d2c0015178000d4ff2f0004826200141788002e
:104d3c000080fa00000006000200fa00004f780024
:104d4c001e427800e04f520004003200141780001d
:104d5c000400a00014178800040037001517800009
:104d6c00e4ff2f0004826200141788000080fa0010
:104d7c00000006000200fa00004f78001e42780086
:104d8c00e04f52000500320055168000040220004e
:104d9c0004827200541688000400370055168000f7
:104dac00f4fd2f0004826200541688000080fa0083
:104dbc00000006000200fa00004f78001e42780046
:104dcc00e04f520004003200541680000440a00052
:104ddc00541688000400370055168000f4fe2f008e
:104dec0004826200541688000080fa00000006005d
:104dfc000000fa00dea2a900de82a900de22a900d2
:104e0c00de02a900a8a2a800c6a2a900a882a80038
:104e1c00c682a900a802a800c602a900a822a80060
:104e2c00c622a900a842a800c642a900a862a800f0
:104e3c00c662a900d202a900d222a900d242a900be
:104e4c00d262a9000080fa00000006000200fa00fd
:104e5c00004f78001e427800e04f520008003a00e4
:104e6c00d202a900d222a900d242a900d262a90082
:104e7c00c662a900c642a900c622a900c602a900a2
:104e8c001e427800e14f520008003a00d202a800fe
:104e9c00d222a800d242a800d262a800c662a80002
:104eac00c642a800c622a800c602a8000080fa00cc
:104ebc00000006000400fa00204798002e429000e3
:104ecc00044f7800b516800004ff2f0004826200a6
:104edc00b41688005516800004ff2f00048262006f
:104eec00541688009e4278006fc2620014479800e6
:104efc001e4290008482fb005416800004827200d3
:104f0c00541688009e4278000582fb004422de0085
:104f1c00044f78001e4278008482fb00b416800097
:104f2c0004827200b41688000080fa0000000600ab
:104f3c000200fa00a4168000044f78001e4278008c
:104f4c00450020000522dd00044f78004416800047
:104f5c00144798001e4290006f426200144798005c
:104f6c001e4290001e424200144798001e429000c0
:104f7c00044078000080fa00000006000000fa00ef
:104f8c0010c0b3004eff07000040eb004cff0700c1
:104f9c000080fa00000006000200fa00004f7800c2
:104fac000040eb0064ff07000040eb0053ff0700dc
:104fbc001e407800bfff0700f0ff07000080fa00da
:104fcc00000006000400fa00100798000002eb0035
:104fdc00040f7800010037001e0fe8001e0290003d
:104fec009e027800848f5200fbff39000080fa008b
:104ffc00000006000200fa000040eb004eff070024
:10500c0010c0b3003dff070010c0b3008fff0700b6
:10501c0010c0b3002aff0700c5ff0700004278004c
:10502c00044f78000040eb0025ff07000300370019
:10503c00bfff070000427800044f78001e42780042
:10504c00e04f5200faff35000080fa000000060025
:10505c000200fa00004f7800f4c3b3009e427800bf
:10506c0084cf52000a003e0010c0b3003900070084
:10507c0004c4b3001e42720004407800c6ff07004f
:10508c0014c0b30004407800aae8b7000f00370042
:10509c001e427800e04f52000c0035000040eb003f
:1050ac002c00070004ccb3001e424200844278005e
:1050bc0004c4b30004c2720004407800b6ff0700b9
:1050cc000042eb0004407800aae8b7001e407800cc
:1050dc00a8e8b7000080fa00000006000200fa0001
:1050ec00004f78001e427800e74f520006003e0049
:1050fc0084cbb3001e42720004407800a6ff070068
:10510c001e407800a9e8b7000080fa0000000600f5
:10511c000200fa00004f7800114798001e407800fa
:10512c00cbff07001e409000ecff07000080fa0048
:10513c00000006000200fa00004f780004ccb30017
:10514c001e4272000440780093ff07000080fa00b2
:10515c00000006000200fa00004f78000040eb004f
:10516c00f5fe07001e427800e04f52000c003a009a
:10517c000040eb00e1fe070010c0b3000dff07007c
:10518c000040eb00fbfe0700f0c3b30082ff0700fa
:10519c000042eb0004407800aae8b7000b0037008f
:1051ac000040eb00d5fe07000040eb0001ff0700bc
:1051bc0010c0b300effe0700f0c3b30076ff07008a
:1051cc0014c0b30004407800aae8b7000080fa00cd
:1051dc00000006000200fa0010c0b3001bff07001d
:1051ec0010c0b300d4fe070010c0b300c3fe07000c
:1051fc0062ff070010c0b300b1fe07004cff0700b0
:10520c0000427800044f78000040eb00acfe070031
:10521c000040eb000dff07000040eb00c6fe07004e
:10522c000040eb00b5fe07001e42780004407800f9
:10523c000080fa00000006000000fa000040eb00bd
:10524c001cff07000040eb00bbfe07000040eb001a
:10525c00aafe07000040eb0099fe07000040eb009f
:10526c00d4fe07000040eb00c2fe070010c0b300e4
:10527c0083fe0700a000200052ff07000040eb0057
:10528c007ffe0700a00020004eff070010c0b300f7
:10529c007bfe070010c0b300aeff0700e0c3b300f5
:1052ac003dff070000ccb3003bff070080cbb300f1
:1052bc0039ff070000c4b30037ff0700f0c3b30089
:1052cc0035ff07000040eb00a2ff0700e0c3b3006e
:1052dc0031ff070000ccb3002fff070080cbb300d9
:1052ec002dff070000c4b3002bff0700f0c3b30071
:1052fc0029ff07000080fa00000006000200fa00f7
:10530c00004f780010c0b3008bfe07000040eb008c
:10531c007afe07001e407800e6fe070017ff070024
:10532c000080fa00000006000200fa000042eb00c8
:10533c00144798001d0037009e4090000040eb0081
:10534c0073ff07000042eb00044f780003003700a6
:10535c000040eb00e9ff07001e4fe800f4c3b30068
:10536c009e42780084cf5200f9ff36009e40900098
:10537c0000c4b30066ff07000042eb00044f780046
:10538c00030037000040eb00dcff07001e4fe80075
:10539c00f4c3b3009e42780084cf5200f9ff36006c
:1053ac001e4290000442e800144798001e429000f0
:1053bc00e74f5200e0ff36000080fa0000000600c4
:1053cc000200fa000042eb00144798001d00370061
:1053dc009e4090000040eb004dff07000042eb00a8
:1053ec00044f78000300370000c0eb00c3ff070038
:1053fc001e4fe800f4c3b3009e42780084cf5200e5
:10540c00f9ff36009e40900000c4b30040ff070037
:10541c000042eb00044f78000300370000c0eb00a3
:10542c00b6ff07001e4fe800f4c3b3009e4278009d
:10543c0084cf5200f9ff36001e4290000442e8006f
:10544c00144798001e429000e74f5200e0ff3600d0
:10545c000080fa00000006000400fa001007980013
:10546c000042eb0014479800300037009e4090003b
:10547c000040eb0026ff07000042eb00044f7800d1
:10548c000c0037001e4290000482fb00c722dd0096
:10549c001e4378000682fb00048242009e029000ac
:1054ac0004824200144278000440780093ff070005
:1054bc001e4fe800f4c3b3009e42780084cf520024
:1054cc00f0ff36009e40900000c4b30010ff0700b0
:1054dc000042eb00044f78000d0037001e42900094
:1054ec000482fb00c722dd001e4378000682fb000d
:1054fc00048242000404b0009e0290000482420028
:10550c0014427800044078007cff07001e4fe8002e
:10551c00f4c3b3009e42780084cf5200efff3600f4
:10552c001e4290000442e800144798001e4290006e
:10553c00e74f5200cdff36000080fa000000060055
:10554c000400fa0020479800314798000042eb0015
:10555c00044f78003e4290000482fb004322de00a0
:10556c0004427800844078002e409000e8fe07004a
:10557c0018ff070000427800044f78003e4290006c
:10558c000482fb004322de00044278008440780051
:10559c002e409000defe07003e4290000482fb008d
:1055ac006702620015002000042add0084427800a6
:1055bc001e42780004c27200044078004fff0700be
:1055cc000080fa00000006000400fa002047980052
:1055dc00314798000042eb00044f78003e429000a7
:1055ec000482fb004322de000442780084407800f1
:1055fc002e409000c6fe0700f6fe07000042780021
:10560c00044f78003e4290000482fb004322de00ef
:10561c0004427800844078002e409000bcfe0700c5
:10562c003e4290000482fb006702620015002000dd
:10563c00042add000442780084c2ea001e4278008d
:10564c0004c26200044078002cff07000080fa00be
:10565c00000006000c00fa00004f9800114f980053
:10566c00224f98000002eb00040f78000002eb00c0
:10567c00140798000002eb00240798009e4a900043
:10568c000e4a900004c25200644798002e4a9000c3
:10569c000482fb00140798002e4a90008482fb00c1
:1056ac00e4ff2f0004aab90004027800630f420043
:1056bc00740037001e029000844278001e4a90004d
:1056cc0084c242002e029000044378000e4a9000df
:1056dc0004424300854078000440780098ff07009e
:1056ec001e029000044278009e4a900084c2520030
:1056fc002e029000044378000e4a900004424300ae
:10570c0085407800044078008dff07001e02900051
:10571c00844278001e4a900084c242002e029000ff
:10572c00044278000e4b90000442530085407800f0
:10573c000440780082ff07001e02900004427800ab
:10574c009e4a900084c252002e02900004427800bf
:10575c000e4b9000044253008540780004407800c2
:10576c0077ff07002e029000844278001e4a9000ba
:10577c0084c242001e029000044378001e4a90002e
:10578c00044343006e42900004425300854078006d
:10579c00044078006aff07002e0290000442780053
:1057ac009e4a900084c252001e029000044378006e
:1057bc001e4a9000044343006e4290000442530082
:1057cc0085407800044078005dff07002e029000b1
:1057dc00844278001e4a900084c242001e0290004f
:1057ec00044278001e4b9000044353006e4290001c
:1057fc0004425300854078000440780050ff0700b5
:10580c002e029000044278009e4a900084c25200fe
:10581c001e029000044278001e4b9000044353007b
:10582c006e4290000442530085407800044078009a
:10583c0043ff07001e027800e00f520005003d00f8
:10584c002e0290004222dd00660242001e0f420032
:10585c0009003700ae0290001e0290000482520034
:10586c004222dd006a0242001e0f42001e0290001e
:10587c000402e900140798002e0290000402e800cc
:10588c0024079800ae0290001e029000848f5200f4
:10589c0088ff34000080fa00000006000600fa00c1
:1058ac00204798003147980042479800534798008a
:1058bc000042eb00044f78000042eb00044f7800ec
:1058cc000b0037002e4290001e424200be4090005a
:1058dc00044078001aff07002e4290001e4242003e
:1058ec00de4090000440780015ff07001e4fe800d2
:1058fc001e4278008482fb004e4290000483fb0021
:10590c002e4290000482fb00040253000402e800c3
:10591c00848f5200ebff35000042eb00044f7800ff
:10592c000b0037003e4290001e424200844078003b
:10593c002e40900002ff07003e4290001e424200a3
:10594c00844078004e409000fdfe07001e4fe8009a
:10595c001e4278008482fb005e4290000483fb00b0
:10596c003e4290000482fb00040253000402e80053
:10597c00848f5200ebff35000080fa000000060017
:10598c000400fa0020479800848a20001442780012
:10599c000482fb00e5024200f4072000848f5200d1
:1059ac000f003400948a2000144278000442e8006e
:1059bc0004407800a9e8b700948a200014427800cb
:1059cc00e74f5200030036000042eb000440780021
:1059dc00a9e8b7000042eb0004407800a8e8b70043
:1059ec00958a200095427800848a20001442780021
:1059fc008540780004407800c5fd07000042eb00ac
:105a0c00044f78001a0037002e4290000402fb006d
:105a1c006522b9000402780005f62f00848242004a
:105a2c001e4378000682fb0004824200a527290051
:105a3c0065427a000440780030fe0700848a20001a
:105a4c00144278000442e80004407800a8e8b7004b
:105a5c00958a200095427800848a200014427800b0
:105a6c008540780004407800a9fd07001e4fe8002f
:105a7c001e427800e44f5200e3ff36000040eb007a
:105a8c001efe0700848a2000144278000442e800bd
:105a9c0004407800a8e8b7000080fa000000060077
:105aac000400fa0020479800848a200014427800f1
:105abc000482fb00e8024200f4072000848f5200ad
:105acc0014003400948a2000144278000442e80048
:105adc0004407800a9e8b700948a200014427800aa
:105aec000442e80004407800a9e8b700948a20003a
:105afc0014427800e74f5200030036000042eb00de
:105b0c0004407800a9e8b7000042eb00044078009c
:105b1c00a8e8b7000042eb00044f780056003700ad
:105b2c00958a200095427800848a200014427800df
:105b3c00854078000440780075fd07002e429000e7
:105b4c000402fb000402b100c422dd001e437800f5
:105b5c000682fb0004824200a5cc280065427a0034
:105b6c0004407800e5fd0700948a20001442780078
:105b7c000442e8008442780084cbb30004c2720073
:105b8c000440780004fd0700858a200095427800c7
:105b9c00f4c3b30084cf52000c003e0010c0b3001d
:105bac006cfd0700858a20009542780004c4b30080
:105bbc0004c2720004407800f7fc070014c0b30064
:105bcc0004407800aae8b70012003700848a20004d
:105bdc0014427800e04f52000e0035000040eb00fc
:105bec005cfd0700858a20009542780004ccb30048
:105bfc0004c242008442780004c4b30004c27200a0
:105c0c0004407800e4fc07000042eb0004407800fc
:105c1c00aae8b7002e4290000402fb000402b10077
:105c2c00c422dd001e4378000682fb000482420081
:105c3c0068024200a5cc280065427a000440780036
:105c4c00aefd0700848a2000144278000442e8006c
:105c5c0004407800a8e8b700958a200095427800a7
:105c6c00848a200014427800854078000440780033
:105c7c0027fd07001e4fe8001e427800e74f520038
:105c8c00a7ff36000080fa00000006000200fa00b0
:105c9c00000f7800050037001e02780014427800cf
:105cac000440780036ff07001e0fe8001e02780043
:105cbc0014427800e04f5200f7ff3a000080fa00df
:105ccc00000006000600fa00404798004e42900083
:105cdc000482fb00cfa2de000400be00f2e9070044
:105cec000002be006266260063fa23000400be00b8
:105cfc0090e907000002be000400be00cfe90700d7
:105d0c000002be00244798000042eb00044f7800cc
:105d1c00140037002e4290001447980007003700fb
:105d2c009e4090001e40780005fe07009e429000a9
:105d3c002e42900004c24200144798001e4290006c
:105d4c008482fb002e4290000482fb00060420009b
:105d5c0004025300848f5200f1ff35001e4278007c
:105d6c00634f4200e4c7b3009e42780084cf5200d8
:105d7c00e8ff36004e42900004cfe9000f003700d8
:105d8c000042eb0014479800060037009e4090003c
:105d9c001e407800eafd07001e42900004c2e80095
:105dac00144798009e429000e4c3b30084cf520085
:105dbc00f6ff36004e4290001e4f4200b4c7b300af
:105dcc009e42780084cf5200edff36000080fa002e
:105ddc00000006000600fa002047980031479800a2
:105dec0042479800534798000042eb00044f78005c
:105dfc000042eb00044f78000b0037002e4290005d
:105e0c001e424200be40900004407800eefd0700a8
:105e1c002e4290001e424200de409000044078006a
:105e2c00e9fd07001e4fe8001e4278008482fb004b
:105e3c004e4290000483fb002e4290000482fb0033
:105e4c00040253000402e800848f5200ebff35007b
:105e5c000042eb00044f78000b0037003e429000ec
:105e6c001e424200844078002e409000d6fd070070
:105e7c003e4290001e424200844078004e4090000a
:105e8c00d1fd07001e4fe8001e4278008482fb0003
:105e9c005e4290000483fb003e4290000482fb00b3
:105eac00040253000402e800848f5200ebff35001b
